{
	"FundMe.sol": {
		"FundMe": {
			"abi": [
				{
					"inputs": [],
					"stateMutability": "nonpayable",
					"type": "constructor"
				},
				{
					"inputs": [
						{
							"internalType": "address",
							"name": "funder",
							"type": "address"
						}
					],
					"name": "addressToAmountFunded",
					"outputs": [
						{
							"internalType": "uint256",
							"name": "amountFunded",
							"type": "uint256"
						}
					],
					"stateMutability": "view",
					"type": "function"
				},
				{
					"inputs": [],
					"name": "fund",
					"outputs": [],
					"stateMutability": "payable",
					"type": "function"
				},
				{
					"inputs": [
						{
							"internalType": "uint256",
							"name": "",
							"type": "uint256"
						}
					],
					"name": "funders",
					"outputs": [
						{
							"internalType": "address",
							"name": "",
							"type": "address"
						}
					],
					"stateMutability": "view",
					"type": "function"
				},
				{
					"inputs": [],
					"name": "minimumUsd",
					"outputs": [
						{
							"internalType": "uint256",
							"name": "",
							"type": "uint256"
						}
					],
					"stateMutability": "view",
					"type": "function"
				},
				{
					"inputs": [],
					"name": "owner",
					"outputs": [
						{
							"internalType": "address",
							"name": "",
							"type": "address"
						}
					],
					"stateMutability": "view",
					"type": "function"
				},
				{
					"inputs": [],
					"name": "withdraw",
					"outputs": [],
					"stateMutability": "nonpayable",
					"type": "function"
				}
			],
			"devdoc": {
				"kind": "dev",
				"methods": {},
				"version": 1
			},
			"evm": {
				"assembly": "    /* \"FundMe.sol\":117:1436  contract FundMe {... */\n  mstore(0x40, 0x80)\n    /* \"FundMe.sol\":209:213  5e18 */\n  0x4563918244f40000\n    /* \"FundMe.sol\":181:213  uint256 public minimumUsd = 5e18 */\n  0x00\n  sstore\n    /* \"FundMe.sol\":369:420  constructor() {... */\n  callvalue\n  dup1\n  iszero\n  tag_1\n  jumpi\n  revert(0x00, 0x00)\ntag_1:\n  pop\n    /* \"FundMe.sol\":402:412  msg.sender */\n  caller\n    /* \"FundMe.sol\":394:399  owner */\n  0x03\n  0x00\n    /* \"FundMe.sol\":394:412  owner = msg.sender */\n  0x0100\n  exp\n  dup2\n  sload\n  dup2\n  0xffffffffffffffffffffffffffffffffffffffff\n  mul\n  not\n  and\n  swap1\n  dup4\n  0xffffffffffffffffffffffffffffffffffffffff\n  and\n  mul\n  or\n  swap1\n  sstore\n  pop\n    /* \"FundMe.sol\":117:1436  contract FundMe {... */\n  dataSize(sub_0)\n  dup1\n  dataOffset(sub_0)\n  0x00\n  codecopy\n  0x00\n  return\nstop\n\nsub_0: assembly {\n        /* \"FundMe.sol\":117:1436  contract FundMe {... */\n      mstore(0x40, 0x80)\n      jumpi(tag_1, lt(calldatasize, 0x04))\n      shr(0xe0, calldataload(0x00))\n      dup1\n      0x098de820\n      eq\n      tag_2\n      jumpi\n      dup1\n      0x3ccfd60b\n      eq\n      tag_3\n      jumpi\n      dup1\n      0x3e47d6f3\n      eq\n      tag_4\n      jumpi\n      dup1\n      0x8da5cb5b\n      eq\n      tag_5\n      jumpi\n      dup1\n      0xb60d4288\n      eq\n      tag_6\n      jumpi\n      dup1\n      0xdc0d3dff\n      eq\n      tag_7\n      jumpi\n    tag_1:\n      revert(0x00, 0x00)\n        /* \"FundMe.sol\":181:213  uint256 public minimumUsd = 5e18 */\n    tag_2:\n      callvalue\n      dup1\n      iszero\n      tag_8\n      jumpi\n      revert(0x00, 0x00)\n    tag_8:\n      pop\n      tag_9\n      tag_10\n      jump\t// in\n    tag_9:\n      mload(0x40)\n      tag_11\n      swap2\n      swap1\n      tag_12\n      jump\t// in\n    tag_11:\n      mload(0x40)\n      dup1\n      swap2\n      sub\n      swap1\n      return\n        /* \"FundMe.sol\":663:1326  function withdraw() public onlyOwner {... */\n    tag_3:\n      callvalue\n      dup1\n      iszero\n      tag_13\n      jumpi\n      revert(0x00, 0x00)\n    tag_13:\n      pop\n      tag_14\n      tag_15\n      jump\t// in\n    tag_14:\n      stop\n        /* \"FundMe.sol\":255:331  mapping(address funder => uint256 amountFunded) public addressToAmountFunded */\n    tag_4:\n      callvalue\n      dup1\n      iszero\n      tag_16\n      jumpi\n      revert(0x00, 0x00)\n    tag_16:\n      pop\n      tag_17\n      0x04\n      dup1\n      calldatasize\n      sub\n      dup2\n      add\n      swap1\n      tag_18\n      swap2\n      swap1\n      tag_19\n      jump\t// in\n    tag_18:\n      tag_20\n      jump\t// in\n    tag_17:\n      mload(0x40)\n      tag_21\n      swap2\n      swap1\n      tag_12\n      jump\t// in\n    tag_21:\n      mload(0x40)\n      dup1\n      swap2\n      sub\n      swap1\n      return\n        /* \"FundMe.sol\":340:360  address public owner */\n    tag_5:\n      callvalue\n      dup1\n      iszero\n      tag_22\n      jumpi\n      revert(0x00, 0x00)\n    tag_22:\n      pop\n      tag_23\n      tag_24\n      jump\t// in\n    tag_23:\n      mload(0x40)\n      tag_25\n      swap2\n      swap1\n      tag_26\n      jump\t// in\n    tag_25:\n      mload(0x40)\n      dup1\n      swap2\n      sub\n      swap1\n      return\n        /* \"FundMe.sol\":428:655  function fund() public payable  {... */\n    tag_6:\n      tag_27\n      tag_28\n      jump\t// in\n    tag_27:\n      stop\n        /* \"FundMe.sol\":224:248  address[] public funders */\n    tag_7:\n      callvalue\n      dup1\n      iszero\n      tag_29\n      jumpi\n      revert(0x00, 0x00)\n    tag_29:\n      pop\n      tag_30\n      0x04\n      dup1\n      calldatasize\n      sub\n      dup2\n      add\n      swap1\n      tag_31\n      swap2\n      swap1\n      tag_32\n      jump\t// in\n    tag_31:\n      tag_33\n      jump\t// in\n    tag_30:\n      mload(0x40)\n      tag_34\n      swap2\n      swap1\n      tag_26\n      jump\t// in\n    tag_34:\n      mload(0x40)\n      dup1\n      swap2\n      sub\n      swap1\n      return\n        /* \"FundMe.sol\":181:213  uint256 public minimumUsd = 5e18 */\n    tag_10:\n      sload(0x00)\n      dup2\n      jump\t// out\n        /* \"FundMe.sol\":663:1326  function withdraw() public onlyOwner {... */\n    tag_15:\n        /* \"FundMe.sol\":1387:1392  owner */\n      0x03\n      0x00\n      swap1\n      sload\n      swap1\n      0x0100\n      exp\n      swap1\n      div\n      0xffffffffffffffffffffffffffffffffffffffff\n      and\n        /* \"FundMe.sol\":1373:1392  msg.sender == owner */\n      0xffffffffffffffffffffffffffffffffffffffff\n      and\n        /* \"FundMe.sol\":1373:1383  msg.sender */\n      caller\n        /* \"FundMe.sol\":1373:1392  msg.sender == owner */\n      0xffffffffffffffffffffffffffffffffffffffff\n      and\n      eq\n        /* \"FundMe.sol\":1365:1411  require(msg.sender == owner, \"Must be owner!\") */\n      tag_36\n      jumpi\n      mload(0x40)\n      0x08c379a000000000000000000000000000000000000000000000000000000000\n      dup2\n      mstore\n      0x04\n      add\n      tag_37\n      swap1\n      tag_38\n      jump\t// in\n    tag_37:\n      mload(0x40)\n      dup1\n      swap2\n      sub\n      swap1\n      revert\n    tag_36:\n        /* \"FundMe.sol\":717:736  uint256 funderIndex */\n      0x00\n        /* \"FundMe.sol\":739:740  0 */\n      0x00\n        /* \"FundMe.sol\":717:740  uint256 funderIndex = 0 */\n      swap1\n      pop\n        /* \"FundMe.sol\":713:898  for(uint256 funderIndex = 0; funderIndex < funders.length; funderIndex++){... */\n    tag_40:\n        /* \"FundMe.sol\":756:763  funders */\n      0x01\n        /* \"FundMe.sol\":756:770  funders.length */\n      dup1\n      sload\n      swap1\n      pop\n        /* \"FundMe.sol\":742:753  funderIndex */\n      dup2\n        /* \"FundMe.sol\":742:770  funderIndex < funders.length */\n      lt\n        /* \"FundMe.sol\":713:898  for(uint256 funderIndex = 0; funderIndex < funders.length; funderIndex++){... */\n      iszero\n      tag_41\n      jumpi\n        /* \"FundMe.sol\":801:815  address funder */\n      0x00\n        /* \"FundMe.sol\":818:825  funders */\n      0x01\n        /* \"FundMe.sol\":826:837  funderIndex */\n      dup3\n        /* \"FundMe.sol\":818:838  funders[funderIndex] */\n      dup2\n      sload\n      dup2\n      lt\n      tag_43\n      jumpi\n      tag_44\n      tag_45\n      jump\t// in\n    tag_44:\n    tag_43:\n      swap1\n      0x00\n      mstore\n      keccak256(0x00, 0x20)\n      add\n      0x00\n      swap1\n      sload\n      swap1\n      0x0100\n      exp\n      swap1\n      div\n      0xffffffffffffffffffffffffffffffffffffffff\n      and\n        /* \"FundMe.sol\":801:838  address funder = funders[funderIndex] */\n      swap1\n      pop\n        /* \"FundMe.sol\":885:886  0 */\n      0x00\n        /* \"FundMe.sol\":853:874  addressToAmountFunded */\n      0x02\n        /* \"FundMe.sol\":853:882  addressToAmountFunded[funder] */\n      0x00\n        /* \"FundMe.sol\":875:881  funder */\n      dup4\n        /* \"FundMe.sol\":853:882  addressToAmountFunded[funder] */\n      0xffffffffffffffffffffffffffffffffffffffff\n      and\n      0xffffffffffffffffffffffffffffffffffffffff\n      and\n      dup2\n      mstore\n      0x20\n      add\n      swap1\n      dup2\n      mstore\n      0x20\n      add\n      0x00\n      keccak256\n        /* \"FundMe.sol\":853:886  addressToAmountFunded[funder] = 0 */\n      dup2\n      swap1\n      sstore\n      pop\n        /* \"FundMe.sol\":786:898  {... */\n      pop\n        /* \"FundMe.sol\":772:785  funderIndex++ */\n      dup1\n      dup1\n      0x01\n      add\n      swap2\n      pop\n      pop\n        /* \"FundMe.sol\":713:898  for(uint256 funderIndex = 0; funderIndex < funders.length; funderIndex++){... */\n      jump(tag_40)\n    tag_41:\n      pop\n        /* \"FundMe.sol\":934:935  0 */\n      0x00\n        /* \"FundMe.sol\":920:936  new address[](0) */\n      0xffffffffffffffff\n      dup2\n      gt\n      iszero\n      tag_47\n      jumpi\n      tag_48\n      tag_49\n      jump\t// in\n    tag_48:\n    tag_47:\n      mload(0x40)\n      swap1\n      dup1\n      dup3\n      mstore\n      dup1\n      0x20\n      mul\n      0x20\n      add\n      dup3\n      add\n      0x40\n      mstore\n      dup1\n      iszero\n      tag_50\n      jumpi\n      dup2\n      0x20\n      add\n      0x20\n      dup3\n      mul\n      dup1\n      calldatasize\n      dup4\n      calldatacopy\n      dup1\n      dup3\n      add\n      swap2\n      pop\n      pop\n      swap1\n      pop\n    tag_50:\n      pop\n        /* \"FundMe.sol\":910:917  funders */\n      0x01\n        /* \"FundMe.sol\":910:936  funders = new address[](0) */\n      swap1\n      dup1\n      mload\n      swap1\n      0x20\n      add\n      swap1\n      tag_51\n      swap3\n      swap2\n      swap1\n      tag_52\n      jump\t// in\n    tag_51:\n      pop\n        /* \"FundMe.sol\":977:987  msg.sender */\n      caller\n        /* \"FundMe.sol\":969:997  payable(msg.sender).transfer */\n      0xffffffffffffffffffffffffffffffffffffffff\n      and\n        /* \"FundMe.sol\":969:1020  payable(msg.sender).transfer(address(this).balance) */\n      0x08fc\n        /* \"FundMe.sol\":998:1019  address(this).balance */\n      selfbalance\n        /* \"FundMe.sol\":969:1020  payable(msg.sender).transfer(address(this).balance) */\n      swap1\n      dup2\n      iszero\n      mul\n      swap1\n      mload(0x40)\n      0x00\n      mload(0x40)\n      dup1\n      dup4\n      sub\n      dup2\n      dup6\n      dup9\n      dup9\n      call\n      swap4\n      pop\n      pop\n      pop\n      pop\n      iszero\n      dup1\n      iszero\n      tag_54\n      jumpi\n      returndatacopy(0x00, 0x00, returndatasize)\n      revert(0x00, returndatasize)\n    tag_54:\n      pop\n        /* \"FundMe.sol\":1049:1065  bool sendSuccess */\n      0x00\n        /* \"FundMe.sol\":1075:1085  msg.sender */\n      caller\n        /* \"FundMe.sol\":1067:1091  payable(msg.sender).send */\n      0xffffffffffffffffffffffffffffffffffffffff\n      and\n        /* \"FundMe.sol\":1067:1114  payable(msg.sender).send(address(this).balance) */\n      0x08fc\n        /* \"FundMe.sol\":1092:1113  address(this).balance */\n      selfbalance\n        /* \"FundMe.sol\":1067:1114  payable(msg.sender).send(address(this).balance) */\n      swap1\n      dup2\n      iszero\n      mul\n      swap1\n      mload(0x40)\n      0x00\n      mload(0x40)\n      dup1\n      dup4\n      sub\n      dup2\n      dup6\n      dup9\n      dup9\n      call\n      swap4\n      pop\n      pop\n      pop\n      pop\n        /* \"FundMe.sol\":1049:1114  bool sendSuccess= payable(msg.sender).send(address(this).balance) */\n      swap1\n      pop\n        /* \"FundMe.sol\":1133:1144  sendSuccess */\n      dup1\n        /* \"FundMe.sol\":1125:1160  require(sendSuccess, 'Send Failed') */\n      tag_56\n      jumpi\n      mload(0x40)\n      0x08c379a000000000000000000000000000000000000000000000000000000000\n      dup2\n      mstore\n      0x04\n      add\n      tag_57\n      swap1\n      tag_58\n      jump\t// in\n    tag_57:\n      mload(0x40)\n      dup1\n      swap2\n      sub\n      swap1\n      revert\n    tag_56:\n        /* \"FundMe.sol\":1190:1206  bool callSuccess */\n      0x00\n        /* \"FundMe.sol\":1220:1230  msg.sender */\n      caller\n        /* \"FundMe.sol\":1212:1236  payable(msg.sender).call */\n      0xffffffffffffffffffffffffffffffffffffffff\n      and\n        /* \"FundMe.sol\":1244:1265  address(this).balance */\n      selfbalance\n        /* \"FundMe.sol\":1212:1270  payable(msg.sender).call{value: address(this).balance}(\"\") */\n      mload(0x40)\n      tag_59\n      swap1\n      tag_60\n      jump\t// in\n    tag_59:\n      0x00\n      mload(0x40)\n      dup1\n      dup4\n      sub\n      dup2\n      dup6\n      dup8\n      gas\n      call\n      swap3\n      pop\n      pop\n      pop\n      returndatasize\n      dup1\n      0x00\n      dup2\n      eq\n      tag_63\n      jumpi\n      mload(0x40)\n      swap2\n      pop\n      and(add(returndatasize, 0x3f), not(0x1f))\n      dup3\n      add\n      0x40\n      mstore\n      returndatasize\n      dup3\n      mstore\n      returndatasize\n      0x00\n      0x20\n      dup5\n      add\n      returndatacopy\n      jump(tag_62)\n    tag_63:\n      0x60\n      swap2\n      pop\n    tag_62:\n      pop\n        /* \"FundMe.sol\":1189:1270  (bool callSuccess, ) = payable(msg.sender).call{value: address(this).balance}(\"\") */\n      pop\n      swap1\n      pop\n        /* \"FundMe.sol\":1289:1300  callSuccess */\n      dup1\n        /* \"FundMe.sol\":1281:1316  require(callSuccess, 'Call Failed') */\n      tag_64\n      jumpi\n      mload(0x40)\n      0x08c379a000000000000000000000000000000000000000000000000000000000\n      dup2\n      mstore\n      0x04\n      add\n      tag_65\n      swap1\n      tag_66\n      jump\t// in\n    tag_65:\n      mload(0x40)\n      dup1\n      swap2\n      sub\n      swap1\n      revert\n    tag_64:\n        /* \"FundMe.sol\":700:1326  {... */\n      pop\n      pop\n        /* \"FundMe.sol\":663:1326  function withdraw() public onlyOwner {... */\n      jump\t// out\n        /* \"FundMe.sol\":255:331  mapping(address funder => uint256 amountFunded) public addressToAmountFunded */\n    tag_20:\n      mstore(0x20, 0x02)\n      dup1\n      0x00\n      mstore\n      keccak256(0x00, 0x40)\n      0x00\n      swap2\n      pop\n      swap1\n      pop\n      sload\n      dup2\n      jump\t// out\n        /* \"FundMe.sol\":340:360  address public owner */\n    tag_24:\n      0x03\n      0x00\n      swap1\n      sload\n      swap1\n      0x0100\n      exp\n      swap1\n      div\n      0xffffffffffffffffffffffffffffffffffffffff\n      and\n      dup2\n      jump\t// out\n        /* \"FundMe.sol\":428:655  function fund() public payable  {... */\n    tag_28:\n        /* \"FundMe.sol\":512:522  minimumUsd */\n      sload(0x00)\n        /* \"FundMe.sol\":479:508  msg.value.getConversionRate() */\n      tag_68\n        /* \"FundMe.sol\":479:488  msg.value */\n      callvalue\n        /* \"FundMe.sol\":479:506  msg.value.getConversionRate */\n      tag_69\n        /* \"FundMe.sol\":479:508  msg.value.getConversionRate() */\n      jump\t// in\n    tag_68:\n        /* \"FundMe.sol\":479:522  msg.value.getConversionRate() >= minimumUsd */\n      lt\n      iszero\n        /* \"FundMe.sol\":471:554  require(msg.value.getConversionRate() >= minimumUsd, \"You need to spend more ETH!\") */\n      tag_70\n      jumpi\n      mload(0x40)\n      0x08c379a000000000000000000000000000000000000000000000000000000000\n      dup2\n      mstore\n      0x04\n      add\n      tag_71\n      swap1\n      tag_72\n      jump\t// in\n    tag_71:\n      mload(0x40)\n      dup1\n      swap2\n      sub\n      swap1\n      revert\n    tag_70:\n        /* \"FundMe.sol\":565:572  funders */\n      0x01\n        /* \"FundMe.sol\":578:588  msg.sender */\n      caller\n        /* \"FundMe.sol\":565:589  funders.push(msg.sender) */\n      swap1\n      dup1\n      0x01\n      dup2\n      sload\n      add\n      dup1\n      dup3\n      sstore\n      dup1\n      swap2\n      pop\n      pop\n      0x01\n      swap1\n      sub\n      swap1\n      0x00\n      mstore\n      keccak256(0x00, 0x20)\n      add\n      0x00\n      swap1\n      swap2\n      swap1\n      swap2\n      swap1\n      swap2\n      0x0100\n      exp\n      dup2\n      sload\n      dup2\n      0xffffffffffffffffffffffffffffffffffffffff\n      mul\n      not\n      and\n      swap1\n      dup4\n      0xffffffffffffffffffffffffffffffffffffffff\n      and\n      mul\n      or\n      swap1\n      sstore\n      pop\n        /* \"FundMe.sol\":638:647  msg.value */\n      callvalue\n        /* \"FundMe.sol\":600:621  addressToAmountFunded */\n      0x02\n        /* \"FundMe.sol\":600:633  addressToAmountFunded[msg.sender] */\n      0x00\n        /* \"FundMe.sol\":622:632  msg.sender */\n      caller\n        /* \"FundMe.sol\":600:633  addressToAmountFunded[msg.sender] */\n      0xffffffffffffffffffffffffffffffffffffffff\n      and\n      0xffffffffffffffffffffffffffffffffffffffff\n      and\n      dup2\n      mstore\n      0x20\n      add\n      swap1\n      dup2\n      mstore\n      0x20\n      add\n      0x00\n      keccak256\n      0x00\n        /* \"FundMe.sol\":600:647  addressToAmountFunded[msg.sender] +=  msg.value */\n      dup3\n      dup3\n      sload\n      tag_74\n      swap2\n      swap1\n      tag_75\n      jump\t// in\n    tag_74:\n      swap3\n      pop\n      pop\n      dup2\n      swap1\n      sstore\n      pop\n        /* \"FundMe.sol\":428:655  function fund() public payable  {... */\n      jump\t// out\n        /* \"FundMe.sol\":224:248  address[] public funders */\n    tag_33:\n      0x01\n      dup2\n      dup2\n      sload\n      dup2\n      lt\n      tag_76\n      jumpi\n      0x00\n      dup1\n      revert\n    tag_76:\n      swap1\n      0x00\n      mstore\n      keccak256(0x00, 0x20)\n      add\n      0x00\n      swap2\n      pop\n      sload\n      swap1\n      0x0100\n      exp\n      swap1\n      div\n      0xffffffffffffffffffffffffffffffffffffffff\n      and\n      dup2\n      jump\t// out\n        /* \"PriceConverter.sol\":526:750  function getConversionRate(uint256 ethAmount) internal  view returns (uint256) {... */\n    tag_69:\n        /* \"PriceConverter.sol\":596:603  uint256 */\n      0x00\n        /* \"PriceConverter.sol\":616:632  uint256 ethPrice */\n      0x00\n        /* \"PriceConverter.sol\":635:645  getPrice() */\n      tag_79\n        /* \"PriceConverter.sol\":635:643  getPrice */\n      tag_80\n        /* \"PriceConverter.sol\":635:645  getPrice() */\n      jump\t// in\n    tag_79:\n        /* \"PriceConverter.sol\":616:645  uint256 ethPrice = getPrice() */\n      swap1\n      pop\n        /* \"PriceConverter.sol\":656:678  uint256 ethAmountInUsd */\n      0x00\n        /* \"PriceConverter.sol\":706:710  1e18 */\n      0x0de0b6b3a7640000\n        /* \"PriceConverter.sol\":693:702  ethAmount */\n      dup5\n        /* \"PriceConverter.sol\":682:690  ethPrice */\n      dup4\n        /* \"PriceConverter.sol\":682:702  ethPrice * ethAmount */\n      tag_81\n      swap2\n      swap1\n      tag_82\n      jump\t// in\n    tag_81:\n        /* \"PriceConverter.sol\":681:710  (ethPrice * ethAmount) / 1e18 */\n      tag_83\n      swap2\n      swap1\n      tag_84\n      jump\t// in\n    tag_83:\n        /* \"PriceConverter.sol\":656:710  uint256 ethAmountInUsd = (ethPrice * ethAmount) / 1e18 */\n      swap1\n      pop\n        /* \"PriceConverter.sol\":728:742  ethAmountInUsd */\n      dup1\n        /* \"PriceConverter.sol\":721:742  return ethAmountInUsd */\n      swap3\n      pop\n      pop\n      pop\n        /* \"PriceConverter.sol\":526:750  function getConversionRate(uint256 ethAmount) internal  view returns (uint256) {... */\n      swap2\n      swap1\n      pop\n      jump\t// out\n        /* \"PriceConverter.sol\":247:518  function getPrice() internal  view returns (uint256) {... */\n    tag_80:\n        /* \"PriceConverter.sol\":291:298  uint256 */\n      0x00\n        /* \"PriceConverter.sol\":311:342  AggregatorV3Interface priceFeed */\n      0x00\n        /* \"PriceConverter.sol\":367:409  0x694AA1769357215DE4FAC081bf1f309aDC325306 */\n      0x694aa1769357215de4fac081bf1f309adc325306\n        /* \"PriceConverter.sol\":311:410  AggregatorV3Interface priceFeed = AggregatorV3Interface(0x694AA1769357215DE4FAC081bf1f309aDC325306) */\n      swap1\n      pop\n        /* \"PriceConverter.sol\":423:435  int256 price */\n      0x00\n        /* \"PriceConverter.sol\":442:451  priceFeed */\n      dup2\n        /* \"PriceConverter.sol\":442:467  priceFeed.latestRoundData */\n      0xffffffffffffffffffffffffffffffffffffffff\n      and\n      0xfeaf968c\n        /* \"PriceConverter.sol\":442:469  priceFeed.latestRoundData() */\n      mload(0x40)\n      dup2\n      0xffffffff\n      and\n      0xe0\n      shl\n      dup2\n      mstore\n      0x04\n      add\n      0xa0\n      mload(0x40)\n      dup1\n      dup4\n      sub\n      dup2\n      dup7\n      gas\n      staticcall\n      iszero\n      dup1\n      iszero\n      tag_87\n      jumpi\n      returndatacopy(0x00, 0x00, returndatasize)\n      revert(0x00, returndatasize)\n    tag_87:\n      pop\n      pop\n      pop\n      pop\n      mload(0x40)\n      returndatasize\n      not(0x1f)\n      0x1f\n      dup3\n      add\n      and\n      dup3\n      add\n      dup1\n      0x40\n      mstore\n      pop\n      dup2\n      add\n      swap1\n      tag_88\n      swap2\n      swap1\n      tag_89\n      jump\t// in\n    tag_88:\n        /* \"PriceConverter.sol\":421:469  (,int256 price,,,) = priceFeed.latestRoundData() */\n      pop\n      pop\n      pop\n      swap2\n      pop\n      pop\n        /* \"PriceConverter.sol\":505:509  1e10 */\n      0x02540be400\n        /* \"PriceConverter.sol\":497:502  price */\n      dup2\n        /* \"PriceConverter.sol\":497:509  price * 1e10 */\n      tag_90\n      swap2\n      swap1\n      tag_91\n      jump\t// in\n    tag_90:\n        /* \"PriceConverter.sol\":482:510  return uint256(price * 1e10) */\n      swap3\n      pop\n      pop\n      pop\n        /* \"PriceConverter.sol\":247:518  function getPrice() internal  view returns (uint256) {... */\n      swap1\n      jump\t// out\n    tag_52:\n      dup3\n      dup1\n      sload\n      dup3\n      dup3\n      sstore\n      swap1\n      0x00\n      mstore\n      keccak256(0x00, 0x20)\n      swap1\n      dup2\n      add\n      swap3\n      dup3\n      iszero\n      tag_92\n      jumpi\n      swap2\n      0x20\n      mul\n      dup3\n      add\n    tag_93:\n      dup3\n      dup2\n      gt\n      iszero\n      tag_94\n      jumpi\n      dup3\n      mload\n      dup3\n      exp(0x0100, 0x00)\n      dup2\n      sload\n      dup2\n      0xffffffffffffffffffffffffffffffffffffffff\n      mul\n      not\n      and\n      swap1\n      dup4\n      0xffffffffffffffffffffffffffffffffffffffff\n      and\n      mul\n      or\n      swap1\n      sstore\n      pop\n      swap2\n      0x20\n      add\n      swap2\n      swap1\n      0x01\n      add\n      swap1\n      jump(tag_93)\n    tag_94:\n    tag_92:\n      pop\n      swap1\n      pop\n      tag_95\n      swap2\n      swap1\n      tag_96\n      jump\t// in\n    tag_95:\n      pop\n      swap1\n      jump\t// out\n    tag_96:\n    tag_97:\n      dup1\n      dup3\n      gt\n      iszero\n      tag_98\n      jumpi\n      0x00\n      dup2\n      0x00\n      swap1\n      sstore\n      pop\n      0x01\n      add\n      jump(tag_97)\n    tag_98:\n      pop\n      swap1\n      jump\t// out\n        /* \"#utility.yul\":7:84   */\n    tag_99:\n        /* \"#utility.yul\":44:51   */\n      0x00\n        /* \"#utility.yul\":73:78   */\n      dup2\n        /* \"#utility.yul\":62:78   */\n      swap1\n      pop\n        /* \"#utility.yul\":7:84   */\n      swap2\n      swap1\n      pop\n      jump\t// out\n        /* \"#utility.yul\":90:208   */\n    tag_100:\n        /* \"#utility.yul\":177:201   */\n      tag_135\n        /* \"#utility.yul\":195:200   */\n      dup2\n        /* \"#utility.yul\":177:201   */\n      tag_99\n      jump\t// in\n    tag_135:\n        /* \"#utility.yul\":172:175   */\n      dup3\n        /* \"#utility.yul\":165:202   */\n      mstore\n        /* \"#utility.yul\":90:208   */\n      pop\n      pop\n      jump\t// out\n        /* \"#utility.yul\":214:436   */\n    tag_12:\n        /* \"#utility.yul\":307:311   */\n      0x00\n        /* \"#utility.yul\":345:347   */\n      0x20\n        /* \"#utility.yul\":334:343   */\n      dup3\n        /* \"#utility.yul\":330:348   */\n      add\n        /* \"#utility.yul\":322:348   */\n      swap1\n      pop\n        /* \"#utility.yul\":358:429   */\n      tag_137\n        /* \"#utility.yul\":426:427   */\n      0x00\n        /* \"#utility.yul\":415:424   */\n      dup4\n        /* \"#utility.yul\":411:428   */\n      add\n        /* \"#utility.yul\":402:408   */\n      dup5\n        /* \"#utility.yul\":358:429   */\n      tag_100\n      jump\t// in\n    tag_137:\n        /* \"#utility.yul\":214:436   */\n      swap3\n      swap2\n      pop\n      pop\n      jump\t// out\n        /* \"#utility.yul\":523:640   */\n    tag_102:\n        /* \"#utility.yul\":632:633   */\n      0x00\n        /* \"#utility.yul\":629:630   */\n      0x00\n        /* \"#utility.yul\":622:634   */\n      revert\n        /* \"#utility.yul\":769:895   */\n    tag_104:\n        /* \"#utility.yul\":806:813   */\n      0x00\n        /* \"#utility.yul\":846:888   */\n      0xffffffffffffffffffffffffffffffffffffffff\n        /* \"#utility.yul\":839:844   */\n      dup3\n        /* \"#utility.yul\":835:889   */\n      and\n        /* \"#utility.yul\":824:889   */\n      swap1\n      pop\n        /* \"#utility.yul\":769:895   */\n      swap2\n      swap1\n      pop\n      jump\t// out\n        /* \"#utility.yul\":901:997   */\n    tag_105:\n        /* \"#utility.yul\":938:945   */\n      0x00\n        /* \"#utility.yul\":967:991   */\n      tag_143\n        /* \"#utility.yul\":985:990   */\n      dup3\n        /* \"#utility.yul\":967:991   */\n      tag_104\n      jump\t// in\n    tag_143:\n        /* \"#utility.yul\":956:991   */\n      swap1\n      pop\n        /* \"#utility.yul\":901:997   */\n      swap2\n      swap1\n      pop\n      jump\t// out\n        /* \"#utility.yul\":1003:1125   */\n    tag_106:\n        /* \"#utility.yul\":1076:1100   */\n      tag_145\n        /* \"#utility.yul\":1094:1099   */\n      dup2\n        /* \"#utility.yul\":1076:1100   */\n      tag_105\n      jump\t// in\n    tag_145:\n        /* \"#utility.yul\":1069:1074   */\n      dup2\n        /* \"#utility.yul\":1066:1101   */\n      eq\n        /* \"#utility.yul\":1056:1119   */\n      tag_146\n      jumpi\n        /* \"#utility.yul\":1115:1116   */\n      0x00\n        /* \"#utility.yul\":1112:1113   */\n      0x00\n        /* \"#utility.yul\":1105:1117   */\n      revert\n        /* \"#utility.yul\":1056:1119   */\n    tag_146:\n        /* \"#utility.yul\":1003:1125   */\n      pop\n      jump\t// out\n        /* \"#utility.yul\":1131:1270   */\n    tag_107:\n        /* \"#utility.yul\":1177:1182   */\n      0x00\n        /* \"#utility.yul\":1215:1221   */\n      dup2\n        /* \"#utility.yul\":1202:1222   */\n      calldataload\n        /* \"#utility.yul\":1193:1222   */\n      swap1\n      pop\n        /* \"#utility.yul\":1231:1264   */\n      tag_148\n        /* \"#utility.yul\":1258:1263   */\n      dup2\n        /* \"#utility.yul\":1231:1264   */\n      tag_106\n      jump\t// in\n    tag_148:\n        /* \"#utility.yul\":1131:1270   */\n      swap3\n      swap2\n      pop\n      pop\n      jump\t// out\n        /* \"#utility.yul\":1276:1605   */\n    tag_19:\n        /* \"#utility.yul\":1335:1341   */\n      0x00\n        /* \"#utility.yul\":1384:1386   */\n      0x20\n        /* \"#utility.yul\":1372:1381   */\n      dup3\n        /* \"#utility.yul\":1363:1370   */\n      dup5\n        /* \"#utility.yul\":1359:1382   */\n      sub\n        /* \"#utility.yul\":1355:1387   */\n      slt\n        /* \"#utility.yul\":1352:1471   */\n      iszero\n      tag_150\n      jumpi\n        /* \"#utility.yul\":1390:1469   */\n      tag_151\n      tag_102\n      jump\t// in\n    tag_151:\n        /* \"#utility.yul\":1352:1471   */\n    tag_150:\n        /* \"#utility.yul\":1510:1511   */\n      0x00\n        /* \"#utility.yul\":1535:1588   */\n      tag_152\n        /* \"#utility.yul\":1580:1587   */\n      dup5\n        /* \"#utility.yul\":1571:1577   */\n      dup3\n        /* \"#utility.yul\":1560:1569   */\n      dup6\n        /* \"#utility.yul\":1556:1578   */\n      add\n        /* \"#utility.yul\":1535:1588   */\n      tag_107\n      jump\t// in\n    tag_152:\n        /* \"#utility.yul\":1525:1588   */\n      swap2\n      pop\n        /* \"#utility.yul\":1481:1598   */\n      pop\n        /* \"#utility.yul\":1276:1605   */\n      swap3\n      swap2\n      pop\n      pop\n      jump\t// out\n        /* \"#utility.yul\":1611:1729   */\n    tag_108:\n        /* \"#utility.yul\":1698:1722   */\n      tag_154\n        /* \"#utility.yul\":1716:1721   */\n      dup2\n        /* \"#utility.yul\":1698:1722   */\n      tag_105\n      jump\t// in\n    tag_154:\n        /* \"#utility.yul\":1693:1696   */\n      dup3\n        /* \"#utility.yul\":1686:1723   */\n      mstore\n        /* \"#utility.yul\":1611:1729   */\n      pop\n      pop\n      jump\t// out\n        /* \"#utility.yul\":1735:1957   */\n    tag_26:\n        /* \"#utility.yul\":1828:1832   */\n      0x00\n        /* \"#utility.yul\":1866:1868   */\n      0x20\n        /* \"#utility.yul\":1855:1864   */\n      dup3\n        /* \"#utility.yul\":1851:1869   */\n      add\n        /* \"#utility.yul\":1843:1869   */\n      swap1\n      pop\n        /* \"#utility.yul\":1879:1950   */\n      tag_156\n        /* \"#utility.yul\":1947:1948   */\n      0x00\n        /* \"#utility.yul\":1936:1945   */\n      dup4\n        /* \"#utility.yul\":1932:1949   */\n      add\n        /* \"#utility.yul\":1923:1929   */\n      dup5\n        /* \"#utility.yul\":1879:1950   */\n      tag_108\n      jump\t// in\n    tag_156:\n        /* \"#utility.yul\":1735:1957   */\n      swap3\n      swap2\n      pop\n      pop\n      jump\t// out\n        /* \"#utility.yul\":1963:2085   */\n    tag_109:\n        /* \"#utility.yul\":2036:2060   */\n      tag_158\n        /* \"#utility.yul\":2054:2059   */\n      dup2\n        /* \"#utility.yul\":2036:2060   */\n      tag_99\n      jump\t// in\n    tag_158:\n        /* \"#utility.yul\":2029:2034   */\n      dup2\n        /* \"#utility.yul\":2026:2061   */\n      eq\n        /* \"#utility.yul\":2016:2079   */\n      tag_159\n      jumpi\n        /* \"#utility.yul\":2075:2076   */\n      0x00\n        /* \"#utility.yul\":2072:2073   */\n      0x00\n        /* \"#utility.yul\":2065:2077   */\n      revert\n        /* \"#utility.yul\":2016:2079   */\n    tag_159:\n        /* \"#utility.yul\":1963:2085   */\n      pop\n      jump\t// out\n        /* \"#utility.yul\":2091:2230   */\n    tag_110:\n        /* \"#utility.yul\":2137:2142   */\n      0x00\n        /* \"#utility.yul\":2175:2181   */\n      dup2\n        /* \"#utility.yul\":2162:2182   */\n      calldataload\n        /* \"#utility.yul\":2153:2182   */\n      swap1\n      pop\n        /* \"#utility.yul\":2191:2224   */\n      tag_161\n        /* \"#utility.yul\":2218:2223   */\n      dup2\n        /* \"#utility.yul\":2191:2224   */\n      tag_109\n      jump\t// in\n    tag_161:\n        /* \"#utility.yul\":2091:2230   */\n      swap3\n      swap2\n      pop\n      pop\n      jump\t// out\n        /* \"#utility.yul\":2236:2565   */\n    tag_32:\n        /* \"#utility.yul\":2295:2301   */\n      0x00\n        /* \"#utility.yul\":2344:2346   */\n      0x20\n        /* \"#utility.yul\":2332:2341   */\n      dup3\n        /* \"#utility.yul\":2323:2330   */\n      dup5\n        /* \"#utility.yul\":2319:2342   */\n      sub\n        /* \"#utility.yul\":2315:2347   */\n      slt\n        /* \"#utility.yul\":2312:2431   */\n      iszero\n      tag_163\n      jumpi\n        /* \"#utility.yul\":2350:2429   */\n      tag_164\n      tag_102\n      jump\t// in\n    tag_164:\n        /* \"#utility.yul\":2312:2431   */\n    tag_163:\n        /* \"#utility.yul\":2470:2471   */\n      0x00\n        /* \"#utility.yul\":2495:2548   */\n      tag_165\n        /* \"#utility.yul\":2540:2547   */\n      dup5\n        /* \"#utility.yul\":2531:2537   */\n      dup3\n        /* \"#utility.yul\":2520:2529   */\n      dup6\n        /* \"#utility.yul\":2516:2538   */\n      add\n        /* \"#utility.yul\":2495:2548   */\n      tag_110\n      jump\t// in\n    tag_165:\n        /* \"#utility.yul\":2485:2548   */\n      swap2\n      pop\n        /* \"#utility.yul\":2441:2558   */\n      pop\n        /* \"#utility.yul\":2236:2565   */\n      swap3\n      swap2\n      pop\n      pop\n      jump\t// out\n        /* \"#utility.yul\":2571:2740   */\n    tag_111:\n        /* \"#utility.yul\":2655:2666   */\n      0x00\n        /* \"#utility.yul\":2689:2695   */\n      dup3\n        /* \"#utility.yul\":2684:2687   */\n      dup3\n        /* \"#utility.yul\":2677:2696   */\n      mstore\n        /* \"#utility.yul\":2729:2733   */\n      0x20\n        /* \"#utility.yul\":2724:2727   */\n      dup3\n        /* \"#utility.yul\":2720:2734   */\n      add\n        /* \"#utility.yul\":2705:2734   */\n      swap1\n      pop\n        /* \"#utility.yul\":2571:2740   */\n      swap3\n      swap2\n      pop\n      pop\n      jump\t// out\n        /* \"#utility.yul\":2746:2910   */\n    tag_112:\n        /* \"#utility.yul\":2886:2902   */\n      0x4d757374206265206f776e657221000000000000000000000000000000000000\n        /* \"#utility.yul\":2882:2883   */\n      0x00\n        /* \"#utility.yul\":2874:2880   */\n      dup3\n        /* \"#utility.yul\":2870:2884   */\n      add\n        /* \"#utility.yul\":2863:2903   */\n      mstore\n        /* \"#utility.yul\":2746:2910   */\n      pop\n      jump\t// out\n        /* \"#utility.yul\":2916:3282   */\n    tag_113:\n        /* \"#utility.yul\":3058:3061   */\n      0x00\n        /* \"#utility.yul\":3079:3146   */\n      tag_169\n        /* \"#utility.yul\":3143:3145   */\n      0x0e\n        /* \"#utility.yul\":3138:3141   */\n      dup4\n        /* \"#utility.yul\":3079:3146   */\n      tag_111\n      jump\t// in\n    tag_169:\n        /* \"#utility.yul\":3072:3146   */\n      swap2\n      pop\n        /* \"#utility.yul\":3155:3248   */\n      tag_170\n        /* \"#utility.yul\":3244:3247   */\n      dup3\n        /* \"#utility.yul\":3155:3248   */\n      tag_112\n      jump\t// in\n    tag_170:\n        /* \"#utility.yul\":3273:3275   */\n      0x20\n        /* \"#utility.yul\":3268:3271   */\n      dup3\n        /* \"#utility.yul\":3264:3276   */\n      add\n        /* \"#utility.yul\":3257:3276   */\n      swap1\n      pop\n        /* \"#utility.yul\":2916:3282   */\n      swap2\n      swap1\n      pop\n      jump\t// out\n        /* \"#utility.yul\":3288:3707   */\n    tag_38:\n        /* \"#utility.yul\":3454:3458   */\n      0x00\n        /* \"#utility.yul\":3492:3494   */\n      0x20\n        /* \"#utility.yul\":3481:3490   */\n      dup3\n        /* \"#utility.yul\":3477:3495   */\n      add\n        /* \"#utility.yul\":3469:3495   */\n      swap1\n      pop\n        /* \"#utility.yul\":3541:3550   */\n      dup2\n        /* \"#utility.yul\":3535:3539   */\n      dup2\n        /* \"#utility.yul\":3531:3551   */\n      sub\n        /* \"#utility.yul\":3527:3528   */\n      0x00\n        /* \"#utility.yul\":3516:3525   */\n      dup4\n        /* \"#utility.yul\":3512:3529   */\n      add\n        /* \"#utility.yul\":3505:3552   */\n      mstore\n        /* \"#utility.yul\":3569:3700   */\n      tag_172\n        /* \"#utility.yul\":3695:3699   */\n      dup2\n        /* \"#utility.yul\":3569:3700   */\n      tag_113\n      jump\t// in\n    tag_172:\n        /* \"#utility.yul\":3561:3700   */\n      swap1\n      pop\n        /* \"#utility.yul\":3288:3707   */\n      swap2\n      swap1\n      pop\n      jump\t// out\n        /* \"#utility.yul\":3713:3893   */\n    tag_45:\n        /* \"#utility.yul\":3761:3838   */\n      0x4e487b7100000000000000000000000000000000000000000000000000000000\n        /* \"#utility.yul\":3758:3759   */\n      0x00\n        /* \"#utility.yul\":3751:3839   */\n      mstore\n        /* \"#utility.yul\":3858:3862   */\n      0x32\n        /* \"#utility.yul\":3855:3856   */\n      0x04\n        /* \"#utility.yul\":3848:3863   */\n      mstore\n        /* \"#utility.yul\":3882:3886   */\n      0x24\n        /* \"#utility.yul\":3879:3880   */\n      0x00\n        /* \"#utility.yul\":3872:3887   */\n      revert\n        /* \"#utility.yul\":3899:4079   */\n    tag_49:\n        /* \"#utility.yul\":3947:4024   */\n      0x4e487b7100000000000000000000000000000000000000000000000000000000\n        /* \"#utility.yul\":3944:3945   */\n      0x00\n        /* \"#utility.yul\":3937:4025   */\n      mstore\n        /* \"#utility.yul\":4044:4048   */\n      0x41\n        /* \"#utility.yul\":4041:4042   */\n      0x04\n        /* \"#utility.yul\":4034:4049   */\n      mstore\n        /* \"#utility.yul\":4068:4072   */\n      0x24\n        /* \"#utility.yul\":4065:4066   */\n      0x00\n        /* \"#utility.yul\":4058:4073   */\n      revert\n        /* \"#utility.yul\":4085:4246   */\n    tag_114:\n        /* \"#utility.yul\":4225:4238   */\n      0x53656e64204661696c6564000000000000000000000000000000000000000000\n        /* \"#utility.yul\":4221:4222   */\n      0x00\n        /* \"#utility.yul\":4213:4219   */\n      dup3\n        /* \"#utility.yul\":4209:4223   */\n      add\n        /* \"#utility.yul\":4202:4239   */\n      mstore\n        /* \"#utility.yul\":4085:4246   */\n      pop\n      jump\t// out\n        /* \"#utility.yul\":4252:4618   */\n    tag_115:\n        /* \"#utility.yul\":4394:4397   */\n      0x00\n        /* \"#utility.yul\":4415:4482   */\n      tag_177\n        /* \"#utility.yul\":4479:4481   */\n      0x0b\n        /* \"#utility.yul\":4474:4477   */\n      dup4\n        /* \"#utility.yul\":4415:4482   */\n      tag_111\n      jump\t// in\n    tag_177:\n        /* \"#utility.yul\":4408:4482   */\n      swap2\n      pop\n        /* \"#utility.yul\":4491:4584   */\n      tag_178\n        /* \"#utility.yul\":4580:4583   */\n      dup3\n        /* \"#utility.yul\":4491:4584   */\n      tag_114\n      jump\t// in\n    tag_178:\n        /* \"#utility.yul\":4609:4611   */\n      0x20\n        /* \"#utility.yul\":4604:4607   */\n      dup3\n        /* \"#utility.yul\":4600:4612   */\n      add\n        /* \"#utility.yul\":4593:4612   */\n      swap1\n      pop\n        /* \"#utility.yul\":4252:4618   */\n      swap2\n      swap1\n      pop\n      jump\t// out\n        /* \"#utility.yul\":4624:5043   */\n    tag_58:\n        /* \"#utility.yul\":4790:4794   */\n      0x00\n        /* \"#utility.yul\":4828:4830   */\n      0x20\n        /* \"#utility.yul\":4817:4826   */\n      dup3\n        /* \"#utility.yul\":4813:4831   */\n      add\n        /* \"#utility.yul\":4805:4831   */\n      swap1\n      pop\n        /* \"#utility.yul\":4877:4886   */\n      dup2\n        /* \"#utility.yul\":4871:4875   */\n      dup2\n        /* \"#utility.yul\":4867:4887   */\n      sub\n        /* \"#utility.yul\":4863:4864   */\n      0x00\n        /* \"#utility.yul\":4852:4861   */\n      dup4\n        /* \"#utility.yul\":4848:4865   */\n      add\n        /* \"#utility.yul\":4841:4888   */\n      mstore\n        /* \"#utility.yul\":4905:5036   */\n      tag_180\n        /* \"#utility.yul\":5031:5035   */\n      dup2\n        /* \"#utility.yul\":4905:5036   */\n      tag_115\n      jump\t// in\n    tag_180:\n        /* \"#utility.yul\":4897:5036   */\n      swap1\n      pop\n        /* \"#utility.yul\":4624:5043   */\n      swap2\n      swap1\n      pop\n      jump\t// out\n        /* \"#utility.yul\":5049:5196   */\n    tag_116:\n        /* \"#utility.yul\":5150:5161   */\n      0x00\n        /* \"#utility.yul\":5187:5190   */\n      dup2\n        /* \"#utility.yul\":5172:5190   */\n      swap1\n      pop\n        /* \"#utility.yul\":5049:5196   */\n      swap3\n      swap2\n      pop\n      pop\n      jump\t// out\n        /* \"#utility.yul\":5202:5316   */\n    tag_117:\n      pop\n      jump\t// out\n        /* \"#utility.yul\":5322:5720   */\n    tag_118:\n        /* \"#utility.yul\":5481:5484   */\n      0x00\n        /* \"#utility.yul\":5502:5585   */\n      tag_184\n        /* \"#utility.yul\":5583:5584   */\n      0x00\n        /* \"#utility.yul\":5578:5581   */\n      dup4\n        /* \"#utility.yul\":5502:5585   */\n      tag_116\n      jump\t// in\n    tag_184:\n        /* \"#utility.yul\":5495:5585   */\n      swap2\n      pop\n        /* \"#utility.yul\":5594:5687   */\n      tag_185\n        /* \"#utility.yul\":5683:5686   */\n      dup3\n        /* \"#utility.yul\":5594:5687   */\n      tag_117\n      jump\t// in\n    tag_185:\n        /* \"#utility.yul\":5712:5713   */\n      0x00\n        /* \"#utility.yul\":5707:5710   */\n      dup3\n        /* \"#utility.yul\":5703:5714   */\n      add\n        /* \"#utility.yul\":5696:5714   */\n      swap1\n      pop\n        /* \"#utility.yul\":5322:5720   */\n      swap2\n      swap1\n      pop\n      jump\t// out\n        /* \"#utility.yul\":5726:6105   */\n    tag_60:\n        /* \"#utility.yul\":5910:5913   */\n      0x00\n        /* \"#utility.yul\":5932:6079   */\n      tag_187\n        /* \"#utility.yul\":6075:6078   */\n      dup3\n        /* \"#utility.yul\":5932:6079   */\n      tag_118\n      jump\t// in\n    tag_187:\n        /* \"#utility.yul\":5925:6079   */\n      swap2\n      pop\n        /* \"#utility.yul\":6096:6099   */\n      dup2\n        /* \"#utility.yul\":6089:6099   */\n      swap1\n      pop\n        /* \"#utility.yul\":5726:6105   */\n      swap2\n      swap1\n      pop\n      jump\t// out\n        /* \"#utility.yul\":6111:6272   */\n    tag_119:\n        /* \"#utility.yul\":6251:6264   */\n      0x43616c6c204661696c6564000000000000000000000000000000000000000000\n        /* \"#utility.yul\":6247:6248   */\n      0x00\n        /* \"#utility.yul\":6239:6245   */\n      dup3\n        /* \"#utility.yul\":6235:6249   */\n      add\n        /* \"#utility.yul\":6228:6265   */\n      mstore\n        /* \"#utility.yul\":6111:6272   */\n      pop\n      jump\t// out\n        /* \"#utility.yul\":6278:6644   */\n    tag_120:\n        /* \"#utility.yul\":6420:6423   */\n      0x00\n        /* \"#utility.yul\":6441:6508   */\n      tag_190\n        /* \"#utility.yul\":6505:6507   */\n      0x0b\n        /* \"#utility.yul\":6500:6503   */\n      dup4\n        /* \"#utility.yul\":6441:6508   */\n      tag_111\n      jump\t// in\n    tag_190:\n        /* \"#utility.yul\":6434:6508   */\n      swap2\n      pop\n        /* \"#utility.yul\":6517:6610   */\n      tag_191\n        /* \"#utility.yul\":6606:6609   */\n      dup3\n        /* \"#utility.yul\":6517:6610   */\n      tag_119\n      jump\t// in\n    tag_191:\n        /* \"#utility.yul\":6635:6637   */\n      0x20\n        /* \"#utility.yul\":6630:6633   */\n      dup3\n        /* \"#utility.yul\":6626:6638   */\n      add\n        /* \"#utility.yul\":6619:6638   */\n      swap1\n      pop\n        /* \"#utility.yul\":6278:6644   */\n      swap2\n      swap1\n      pop\n      jump\t// out\n        /* \"#utility.yul\":6650:7069   */\n    tag_66:\n        /* \"#utility.yul\":6816:6820   */\n      0x00\n        /* \"#utility.yul\":6854:6856   */\n      0x20\n        /* \"#utility.yul\":6843:6852   */\n      dup3\n        /* \"#utility.yul\":6839:6857   */\n      add\n        /* \"#utility.yul\":6831:6857   */\n      swap1\n      pop\n        /* \"#utility.yul\":6903:6912   */\n      dup2\n        /* \"#utility.yul\":6897:6901   */\n      dup2\n        /* \"#utility.yul\":6893:6913   */\n      sub\n        /* \"#utility.yul\":6889:6890   */\n      0x00\n        /* \"#utility.yul\":6878:6887   */\n      dup4\n        /* \"#utility.yul\":6874:6891   */\n      add\n        /* \"#utility.yul\":6867:6914   */\n      mstore\n        /* \"#utility.yul\":6931:7062   */\n      tag_193\n        /* \"#utility.yul\":7057:7061   */\n      dup2\n        /* \"#utility.yul\":6931:7062   */\n      tag_120\n      jump\t// in\n    tag_193:\n        /* \"#utility.yul\":6923:7062   */\n      swap1\n      pop\n        /* \"#utility.yul\":6650:7069   */\n      swap2\n      swap1\n      pop\n      jump\t// out\n        /* \"#utility.yul\":7075:7252   */\n    tag_121:\n        /* \"#utility.yul\":7215:7244   */\n      0x596f75206e65656420746f207370656e64206d6f726520455448210000000000\n        /* \"#utility.yul\":7211:7212   */\n      0x00\n        /* \"#utility.yul\":7203:7209   */\n      dup3\n        /* \"#utility.yul\":7199:7213   */\n      add\n        /* \"#utility.yul\":7192:7245   */\n      mstore\n        /* \"#utility.yul\":7075:7252   */\n      pop\n      jump\t// out\n        /* \"#utility.yul\":7258:7624   */\n    tag_122:\n        /* \"#utility.yul\":7400:7403   */\n      0x00\n        /* \"#utility.yul\":7421:7488   */\n      tag_196\n        /* \"#utility.yul\":7485:7487   */\n      0x1b\n        /* \"#utility.yul\":7480:7483   */\n      dup4\n        /* \"#utility.yul\":7421:7488   */\n      tag_111\n      jump\t// in\n    tag_196:\n        /* \"#utility.yul\":7414:7488   */\n      swap2\n      pop\n        /* \"#utility.yul\":7497:7590   */\n      tag_197\n        /* \"#utility.yul\":7586:7589   */\n      dup3\n        /* \"#utility.yul\":7497:7590   */\n      tag_121\n      jump\t// in\n    tag_197:\n        /* \"#utility.yul\":7615:7617   */\n      0x20\n        /* \"#utility.yul\":7610:7613   */\n      dup3\n        /* \"#utility.yul\":7606:7618   */\n      add\n        /* \"#utility.yul\":7599:7618   */\n      swap1\n      pop\n        /* \"#utility.yul\":7258:7624   */\n      swap2\n      swap1\n      pop\n      jump\t// out\n        /* \"#utility.yul\":7630:8049   */\n    tag_72:\n        /* \"#utility.yul\":7796:7800   */\n      0x00\n        /* \"#utility.yul\":7834:7836   */\n      0x20\n        /* \"#utility.yul\":7823:7832   */\n      dup3\n        /* \"#utility.yul\":7819:7837   */\n      add\n        /* \"#utility.yul\":7811:7837   */\n      swap1\n      pop\n        /* \"#utility.yul\":7883:7892   */\n      dup2\n        /* \"#utility.yul\":7877:7881   */\n      dup2\n        /* \"#utility.yul\":7873:7893   */\n      sub\n        /* \"#utility.yul\":7869:7870   */\n      0x00\n        /* \"#utility.yul\":7858:7867   */\n      dup4\n        /* \"#utility.yul\":7854:7871   */\n      add\n        /* \"#utility.yul\":7847:7894   */\n      mstore\n        /* \"#utility.yul\":7911:8042   */\n      tag_199\n        /* \"#utility.yul\":8037:8041   */\n      dup2\n        /* \"#utility.yul\":7911:8042   */\n      tag_122\n      jump\t// in\n    tag_199:\n        /* \"#utility.yul\":7903:8042   */\n      swap1\n      pop\n        /* \"#utility.yul\":7630:8049   */\n      swap2\n      swap1\n      pop\n      jump\t// out\n        /* \"#utility.yul\":8055:8235   */\n    tag_123:\n        /* \"#utility.yul\":8103:8180   */\n      0x4e487b7100000000000000000000000000000000000000000000000000000000\n        /* \"#utility.yul\":8100:8101   */\n      0x00\n        /* \"#utility.yul\":8093:8181   */\n      mstore\n        /* \"#utility.yul\":8200:8204   */\n      0x11\n        /* \"#utility.yul\":8197:8198   */\n      0x04\n        /* \"#utility.yul\":8190:8205   */\n      mstore\n        /* \"#utility.yul\":8224:8228   */\n      0x24\n        /* \"#utility.yul\":8221:8222   */\n      0x00\n        /* \"#utility.yul\":8214:8229   */\n      revert\n        /* \"#utility.yul\":8241:8432   */\n    tag_75:\n        /* \"#utility.yul\":8281:8284   */\n      0x00\n        /* \"#utility.yul\":8300:8320   */\n      tag_202\n        /* \"#utility.yul\":8318:8319   */\n      dup3\n        /* \"#utility.yul\":8300:8320   */\n      tag_99\n      jump\t// in\n    tag_202:\n        /* \"#utility.yul\":8295:8320   */\n      swap2\n      pop\n        /* \"#utility.yul\":8334:8354   */\n      tag_203\n        /* \"#utility.yul\":8352:8353   */\n      dup4\n        /* \"#utility.yul\":8334:8354   */\n      tag_99\n      jump\t// in\n    tag_203:\n        /* \"#utility.yul\":8329:8354   */\n      swap3\n      pop\n        /* \"#utility.yul\":8377:8378   */\n      dup3\n        /* \"#utility.yul\":8374:8375   */\n      dup3\n        /* \"#utility.yul\":8370:8379   */\n      add\n        /* \"#utility.yul\":8363:8379   */\n      swap1\n      pop\n        /* \"#utility.yul\":8398:8401   */\n      dup1\n        /* \"#utility.yul\":8395:8396   */\n      dup3\n        /* \"#utility.yul\":8392:8402   */\n      gt\n        /* \"#utility.yul\":8389:8425   */\n      iszero\n      tag_204\n      jumpi\n        /* \"#utility.yul\":8405:8423   */\n      tag_205\n      tag_123\n      jump\t// in\n    tag_205:\n        /* \"#utility.yul\":8389:8425   */\n    tag_204:\n        /* \"#utility.yul\":8241:8432   */\n      swap3\n      swap2\n      pop\n      pop\n      jump\t// out\n        /* \"#utility.yul\":8438:8848   */\n    tag_82:\n        /* \"#utility.yul\":8478:8485   */\n      0x00\n        /* \"#utility.yul\":8501:8521   */\n      tag_207\n        /* \"#utility.yul\":8519:8520   */\n      dup3\n        /* \"#utility.yul\":8501:8521   */\n      tag_99\n      jump\t// in\n    tag_207:\n        /* \"#utility.yul\":8496:8521   */\n      swap2\n      pop\n        /* \"#utility.yul\":8535:8555   */\n      tag_208\n        /* \"#utility.yul\":8553:8554   */\n      dup4\n        /* \"#utility.yul\":8535:8555   */\n      tag_99\n      jump\t// in\n    tag_208:\n        /* \"#utility.yul\":8530:8555   */\n      swap3\n      pop\n        /* \"#utility.yul\":8590:8591   */\n      dup3\n        /* \"#utility.yul\":8587:8588   */\n      dup3\n        /* \"#utility.yul\":8583:8592   */\n      mul\n        /* \"#utility.yul\":8612:8642   */\n      tag_209\n        /* \"#utility.yul\":8630:8641   */\n      dup2\n        /* \"#utility.yul\":8612:8642   */\n      tag_99\n      jump\t// in\n    tag_209:\n        /* \"#utility.yul\":8601:8642   */\n      swap2\n      pop\n        /* \"#utility.yul\":8791:8792   */\n      dup3\n        /* \"#utility.yul\":8782:8789   */\n      dup3\n        /* \"#utility.yul\":8778:8793   */\n      div\n        /* \"#utility.yul\":8775:8776   */\n      dup5\n        /* \"#utility.yul\":8772:8794   */\n      eq\n        /* \"#utility.yul\":8752:8753   */\n      dup4\n        /* \"#utility.yul\":8745:8754   */\n      iszero\n        /* \"#utility.yul\":8725:8808   */\n      or\n        /* \"#utility.yul\":8702:8841   */\n      tag_210\n      jumpi\n        /* \"#utility.yul\":8821:8839   */\n      tag_211\n      tag_123\n      jump\t// in\n    tag_211:\n        /* \"#utility.yul\":8702:8841   */\n    tag_210:\n        /* \"#utility.yul\":8486:8848   */\n      pop\n        /* \"#utility.yul\":8438:8848   */\n      swap3\n      swap2\n      pop\n      pop\n      jump\t// out\n        /* \"#utility.yul\":8854:9034   */\n    tag_124:\n        /* \"#utility.yul\":8902:8979   */\n      0x4e487b7100000000000000000000000000000000000000000000000000000000\n        /* \"#utility.yul\":8899:8900   */\n      0x00\n        /* \"#utility.yul\":8892:8980   */\n      mstore\n        /* \"#utility.yul\":8999:9003   */\n      0x12\n        /* \"#utility.yul\":8996:8997   */\n      0x04\n        /* \"#utility.yul\":8989:9004   */\n      mstore\n        /* \"#utility.yul\":9023:9027   */\n      0x24\n        /* \"#utility.yul\":9020:9021   */\n      0x00\n        /* \"#utility.yul\":9013:9028   */\n      revert\n        /* \"#utility.yul\":9040:9225   */\n    tag_84:\n        /* \"#utility.yul\":9080:9081   */\n      0x00\n        /* \"#utility.yul\":9097:9117   */\n      tag_214\n        /* \"#utility.yul\":9115:9116   */\n      dup3\n        /* \"#utility.yul\":9097:9117   */\n      tag_99\n      jump\t// in\n    tag_214:\n        /* \"#utility.yul\":9092:9117   */\n      swap2\n      pop\n        /* \"#utility.yul\":9131:9151   */\n      tag_215\n        /* \"#utility.yul\":9149:9150   */\n      dup4\n        /* \"#utility.yul\":9131:9151   */\n      tag_99\n      jump\t// in\n    tag_215:\n        /* \"#utility.yul\":9126:9151   */\n      swap3\n      pop\n        /* \"#utility.yul\":9170:9171   */\n      dup3\n        /* \"#utility.yul\":9160:9195   */\n      tag_216\n      jumpi\n        /* \"#utility.yul\":9175:9193   */\n      tag_217\n      tag_124\n      jump\t// in\n    tag_217:\n        /* \"#utility.yul\":9160:9195   */\n    tag_216:\n        /* \"#utility.yul\":9217:9218   */\n      dup3\n        /* \"#utility.yul\":9214:9215   */\n      dup3\n        /* \"#utility.yul\":9210:9219   */\n      div\n        /* \"#utility.yul\":9205:9219   */\n      swap1\n      pop\n        /* \"#utility.yul\":9040:9225   */\n      swap3\n      swap2\n      pop\n      pop\n      jump\t// out\n        /* \"#utility.yul\":9231:9336   */\n    tag_125:\n        /* \"#utility.yul\":9267:9274   */\n      0x00\n        /* \"#utility.yul\":9307:9329   */\n      0xffffffffffffffffffff\n        /* \"#utility.yul\":9300:9305   */\n      dup3\n        /* \"#utility.yul\":9296:9330   */\n      and\n        /* \"#utility.yul\":9285:9330   */\n      swap1\n      pop\n        /* \"#utility.yul\":9231:9336   */\n      swap2\n      swap1\n      pop\n      jump\t// out\n        /* \"#utility.yul\":9342:9462   */\n    tag_126:\n        /* \"#utility.yul\":9414:9437   */\n      tag_220\n        /* \"#utility.yul\":9431:9436   */\n      dup2\n        /* \"#utility.yul\":9414:9437   */\n      tag_125\n      jump\t// in\n    tag_220:\n        /* \"#utility.yul\":9407:9412   */\n      dup2\n        /* \"#utility.yul\":9404:9438   */\n      eq\n        /* \"#utility.yul\":9394:9456   */\n      tag_221\n      jumpi\n        /* \"#utility.yul\":9452:9453   */\n      0x00\n        /* \"#utility.yul\":9449:9450   */\n      0x00\n        /* \"#utility.yul\":9442:9454   */\n      revert\n        /* \"#utility.yul\":9394:9456   */\n    tag_221:\n        /* \"#utility.yul\":9342:9462   */\n      pop\n      jump\t// out\n        /* \"#utility.yul\":9468:9609   */\n    tag_127:\n        /* \"#utility.yul\":9524:9529   */\n      0x00\n        /* \"#utility.yul\":9555:9561   */\n      dup2\n        /* \"#utility.yul\":9549:9562   */\n      mload\n        /* \"#utility.yul\":9540:9562   */\n      swap1\n      pop\n        /* \"#utility.yul\":9571:9603   */\n      tag_223\n        /* \"#utility.yul\":9597:9602   */\n      dup2\n        /* \"#utility.yul\":9571:9603   */\n      tag_126\n      jump\t// in\n    tag_223:\n        /* \"#utility.yul\":9468:9609   */\n      swap3\n      swap2\n      pop\n      pop\n      jump\t// out\n        /* \"#utility.yul\":9615:9691   */\n    tag_128:\n        /* \"#utility.yul\":9651:9658   */\n      0x00\n        /* \"#utility.yul\":9680:9685   */\n      dup2\n        /* \"#utility.yul\":9669:9685   */\n      swap1\n      pop\n        /* \"#utility.yul\":9615:9691   */\n      swap2\n      swap1\n      pop\n      jump\t// out\n        /* \"#utility.yul\":9697:9817   */\n    tag_129:\n        /* \"#utility.yul\":9769:9792   */\n      tag_226\n        /* \"#utility.yul\":9786:9791   */\n      dup2\n        /* \"#utility.yul\":9769:9792   */\n      tag_128\n      jump\t// in\n    tag_226:\n        /* \"#utility.yul\":9762:9767   */\n      dup2\n        /* \"#utility.yul\":9759:9793   */\n      eq\n        /* \"#utility.yul\":9749:9811   */\n      tag_227\n      jumpi\n        /* \"#utility.yul\":9807:9808   */\n      0x00\n        /* \"#utility.yul\":9804:9805   */\n      0x00\n        /* \"#utility.yul\":9797:9809   */\n      revert\n        /* \"#utility.yul\":9749:9811   */\n    tag_227:\n        /* \"#utility.yul\":9697:9817   */\n      pop\n      jump\t// out\n        /* \"#utility.yul\":9823:9964   */\n    tag_130:\n        /* \"#utility.yul\":9879:9884   */\n      0x00\n        /* \"#utility.yul\":9910:9916   */\n      dup2\n        /* \"#utility.yul\":9904:9917   */\n      mload\n        /* \"#utility.yul\":9895:9917   */\n      swap1\n      pop\n        /* \"#utility.yul\":9926:9958   */\n      tag_229\n        /* \"#utility.yul\":9952:9957   */\n      dup2\n        /* \"#utility.yul\":9926:9958   */\n      tag_129\n      jump\t// in\n    tag_229:\n        /* \"#utility.yul\":9823:9964   */\n      swap3\n      swap2\n      pop\n      pop\n      jump\t// out\n        /* \"#utility.yul\":9970:10113   */\n    tag_131:\n        /* \"#utility.yul\":10027:10032   */\n      0x00\n        /* \"#utility.yul\":10058:10064   */\n      dup2\n        /* \"#utility.yul\":10052:10065   */\n      mload\n        /* \"#utility.yul\":10043:10065   */\n      swap1\n      pop\n        /* \"#utility.yul\":10074:10107   */\n      tag_231\n        /* \"#utility.yul\":10101:10106   */\n      dup2\n        /* \"#utility.yul\":10074:10107   */\n      tag_109\n      jump\t// in\n    tag_231:\n        /* \"#utility.yul\":9970:10113   */\n      swap3\n      swap2\n      pop\n      pop\n      jump\t// out\n        /* \"#utility.yul\":10119:11090   */\n    tag_89:\n        /* \"#utility.yul\":10222:10228   */\n      0x00\n        /* \"#utility.yul\":10230:10236   */\n      0x00\n        /* \"#utility.yul\":10238:10244   */\n      0x00\n        /* \"#utility.yul\":10246:10252   */\n      0x00\n        /* \"#utility.yul\":10254:10260   */\n      0x00\n        /* \"#utility.yul\":10303:10306   */\n      0xa0\n        /* \"#utility.yul\":10291:10300   */\n      dup7\n        /* \"#utility.yul\":10282:10289   */\n      dup9\n        /* \"#utility.yul\":10278:10301   */\n      sub\n        /* \"#utility.yul\":10274:10307   */\n      slt\n        /* \"#utility.yul\":10271:10391   */\n      iszero\n      tag_233\n      jumpi\n        /* \"#utility.yul\":10310:10389   */\n      tag_234\n      tag_102\n      jump\t// in\n    tag_234:\n        /* \"#utility.yul\":10271:10391   */\n    tag_233:\n        /* \"#utility.yul\":10430:10431   */\n      0x00\n        /* \"#utility.yul\":10455:10518   */\n      tag_235\n        /* \"#utility.yul\":10510:10517   */\n      dup9\n        /* \"#utility.yul\":10501:10507   */\n      dup3\n        /* \"#utility.yul\":10490:10499   */\n      dup10\n        /* \"#utility.yul\":10486:10508   */\n      add\n        /* \"#utility.yul\":10455:10518   */\n      tag_127\n      jump\t// in\n    tag_235:\n        /* \"#utility.yul\":10445:10518   */\n      swap6\n      pop\n        /* \"#utility.yul\":10401:10528   */\n      pop\n        /* \"#utility.yul\":10567:10569   */\n      0x20\n        /* \"#utility.yul\":10593:10656   */\n      tag_236\n        /* \"#utility.yul\":10648:10655   */\n      dup9\n        /* \"#utility.yul\":10639:10645   */\n      dup3\n        /* \"#utility.yul\":10628:10637   */\n      dup10\n        /* \"#utility.yul\":10624:10646   */\n      add\n        /* \"#utility.yul\":10593:10656   */\n      tag_130\n      jump\t// in\n    tag_236:\n        /* \"#utility.yul\":10583:10656   */\n      swap5\n      pop\n        /* \"#utility.yul\":10538:10666   */\n      pop\n        /* \"#utility.yul\":10705:10707   */\n      0x40\n        /* \"#utility.yul\":10731:10795   */\n      tag_237\n        /* \"#utility.yul\":10787:10794   */\n      dup9\n        /* \"#utility.yul\":10778:10784   */\n      dup3\n        /* \"#utility.yul\":10767:10776   */\n      dup10\n        /* \"#utility.yul\":10763:10785   */\n      add\n        /* \"#utility.yul\":10731:10795   */\n      tag_131\n      jump\t// in\n    tag_237:\n        /* \"#utility.yul\":10721:10795   */\n      swap4\n      pop\n        /* \"#utility.yul\":10676:10805   */\n      pop\n        /* \"#utility.yul\":10844:10846   */\n      0x60\n        /* \"#utility.yul\":10870:10934   */\n      tag_238\n        /* \"#utility.yul\":10926:10933   */\n      dup9\n        /* \"#utility.yul\":10917:10923   */\n      dup3\n        /* \"#utility.yul\":10906:10915   */\n      dup10\n        /* \"#utility.yul\":10902:10924   */\n      add\n        /* \"#utility.yul\":10870:10934   */\n      tag_131\n      jump\t// in\n    tag_238:\n        /* \"#utility.yul\":10860:10934   */\n      swap3\n      pop\n        /* \"#utility.yul\":10815:10944   */\n      pop\n        /* \"#utility.yul\":10983:10986   */\n      0x80\n        /* \"#utility.yul\":11010:11073   */\n      tag_239\n        /* \"#utility.yul\":11065:11072   */\n      dup9\n        /* \"#utility.yul\":11056:11062   */\n      dup3\n        /* \"#utility.yul\":11045:11054   */\n      dup10\n        /* \"#utility.yul\":11041:11063   */\n      add\n        /* \"#utility.yul\":11010:11073   */\n      tag_127\n      jump\t// in\n    tag_239:\n        /* \"#utility.yul\":11000:11073   */\n      swap2\n      pop\n        /* \"#utility.yul\":10954:11083   */\n      pop\n        /* \"#utility.yul\":10119:11090   */\n      swap3\n      swap6\n      pop\n      swap3\n      swap6\n      swap1\n      swap4\n      pop\n      jump\t// out\n        /* \"#utility.yul\":11096:11652   */\n    tag_91:\n        /* \"#utility.yul\":11135:11142   */\n      0x00\n        /* \"#utility.yul\":11158:11177   */\n      tag_241\n        /* \"#utility.yul\":11175:11176   */\n      dup3\n        /* \"#utility.yul\":11158:11177   */\n      tag_128\n      jump\t// in\n    tag_241:\n        /* \"#utility.yul\":11153:11177   */\n      swap2\n      pop\n        /* \"#utility.yul\":11191:11210   */\n      tag_242\n        /* \"#utility.yul\":11208:11209   */\n      dup4\n        /* \"#utility.yul\":11191:11210   */\n      tag_128\n      jump\t// in\n    tag_242:\n        /* \"#utility.yul\":11186:11210   */\n      swap3\n      pop\n        /* \"#utility.yul\":11245:11246   */\n      dup3\n        /* \"#utility.yul\":11242:11243   */\n      dup3\n        /* \"#utility.yul\":11238:11247   */\n      mul\n        /* \"#utility.yul\":11267:11296   */\n      tag_243\n        /* \"#utility.yul\":11284:11295   */\n      dup2\n        /* \"#utility.yul\":11267:11296   */\n      tag_128\n      jump\t// in\n    tag_243:\n        /* \"#utility.yul\":11256:11296   */\n      swap2\n      pop\n        /* \"#utility.yul\":11354:11420   */\n      0x8000000000000000000000000000000000000000000000000000000000000000\n        /* \"#utility.yul\":11351:11352   */\n      dup5\n        /* \"#utility.yul\":11348:11421   */\n      eq\n        /* \"#utility.yul\":11344:11345   */\n      0x00\n        /* \"#utility.yul\":11341:11342   */\n      dup5\n        /* \"#utility.yul\":11337:11346   */\n      slt\n        /* \"#utility.yul\":11333:11422   */\n      and\n        /* \"#utility.yul\":11330:11445   */\n      iszero\n      tag_244\n      jumpi\n        /* \"#utility.yul\":11425:11443   */\n      tag_245\n      tag_123\n      jump\t// in\n    tag_245:\n        /* \"#utility.yul\":11330:11445   */\n    tag_244:\n        /* \"#utility.yul\":11595:11596   */\n      dup3\n        /* \"#utility.yul\":11586:11593   */\n      dup3\n        /* \"#utility.yul\":11581:11597   */\n      sdiv\n        /* \"#utility.yul\":11578:11579   */\n      dup5\n        /* \"#utility.yul\":11575:11598   */\n      eq\n        /* \"#utility.yul\":11555:11556   */\n      dup4\n        /* \"#utility.yul\":11548:11557   */\n      iszero\n        /* \"#utility.yul\":11528:11612   */\n      or\n        /* \"#utility.yul\":11505:11645   */\n      tag_246\n      jumpi\n        /* \"#utility.yul\":11625:11643   */\n      tag_247\n      tag_123\n      jump\t// in\n    tag_247:\n        /* \"#utility.yul\":11505:11645   */\n    tag_246:\n        /* \"#utility.yul\":11143:11652   */\n      pop\n        /* \"#utility.yul\":11096:11652   */\n      swap3\n      swap2\n      pop\n      pop\n      jump\t// out\n\n    auxdata: 0xa264697066735822122040d0c5334ed828d260364d9ad29a0b703eb7a40be39bc1b395b48d5a52ea51f664736f6c634300081e0033\n}\n",
				"bytecode": {
					"linkReferences": {},
					"object": "6080604052674563918244f400005f553480156019575f5ffd5b503360035f6101000a81548173ffffffffffffffffffffffffffffffffffffffff021916908373ffffffffffffffffffffffffffffffffffffffff160217905550610d5e806100675f395ff3fe608060405260043610610054575f3560e01c8063098de820146100585780633ccfd60b146100825780633e47d6f3146100985780638da5cb5b146100d4578063b60d4288146100fe578063dc0d3dff14610108575b5f5ffd5b348015610063575f5ffd5b5061006c610144565b604051610079919061074d565b60405180910390f35b34801561008d575f5ffd5b50610096610149565b005b3480156100a3575f5ffd5b506100be60048036038101906100b991906107c4565b610440565b6040516100cb919061074d565b60405180910390f35b3480156100df575f5ffd5b506100e8610455565b6040516100f591906107fe565b60405180910390f35b61010661047a565b005b348015610113575f5ffd5b5061012e60048036038101906101299190610841565b61057b565b60405161013b91906107fe565b60405180910390f35b5f5481565b60035f9054906101000a900473ffffffffffffffffffffffffffffffffffffffff1673ffffffffffffffffffffffffffffffffffffffff163373ffffffffffffffffffffffffffffffffffffffff16146101d8576040517f08c379a00000000000000000000000000000000000000000000000000000000081526004016101cf906108c6565b60405180910390fd5b5f5f90505b600180549050811015610279575f600182815481106101ff576101fe6108e4565b5b905f5260205f20015f9054906101000a900473ffffffffffffffffffffffffffffffffffffffff1690505f60025f8373ffffffffffffffffffffffffffffffffffffffff1673ffffffffffffffffffffffffffffffffffffffff1681526020019081526020015f20819055505080806001019150506101dd565b505f67ffffffffffffffff81111561029457610293610911565b5b6040519080825280602002602001820160405280156102c25781602001602082028036833780820191505090505b50600190805190602001906102d8929190610693565b503373ffffffffffffffffffffffffffffffffffffffff166108fc4790811502906040515f60405180830381858888f1935050505015801561031c573d5f5f3e3d5ffd5b505f3373ffffffffffffffffffffffffffffffffffffffff166108fc4790811502906040515f60405180830381858888f19350505050905080610394576040517f08c379a000000000000000000000000000000000000000000000000000000000815260040161038b90610988565b60405180910390fd5b5f3373ffffffffffffffffffffffffffffffffffffffff16476040516103b9906109d3565b5f6040518083038185875af1925050503d805f81146103f3576040519150601f19603f3d011682016040523d82523d5f602084013e6103f8565b606091505b505090508061043c576040517f08c379a000000000000000000000000000000000000000000000000000000000815260040161043390610a31565b60405180910390fd5b5050565b6002602052805f5260405f205f915090505481565b60035f9054906101000a900473ffffffffffffffffffffffffffffffffffffffff1681565b5f54610485346105b6565b10156104c6576040517f08c379a00000000000000000000000000000000000000000000000000000000081526004016104bd90610a99565b60405180910390fd5b600133908060018154018082558091505060019003905f5260205f20015f9091909190916101000a81548173ffffffffffffffffffffffffffffffffffffffff021916908373ffffffffffffffffffffffffffffffffffffffff1602179055503460025f3373ffffffffffffffffffffffffffffffffffffffff1673ffffffffffffffffffffffffffffffffffffffff1681526020019081526020015f205f8282546105729190610ae4565b92505081905550565b6001818154811061058a575f80fd5b905f5260205f20015f915054906101000a900473ffffffffffffffffffffffffffffffffffffffff1681565b5f5f6105c06105ee565b90505f670de0b6b3a764000084836105d89190610b17565b6105e29190610b85565b90508092505050919050565b5f5f73694aa1769357215de4fac081bf1f309adc32530690505f8173ffffffffffffffffffffffffffffffffffffffff1663feaf968c6040518163ffffffff1660e01b815260040160a060405180830381865afa158015610651573d5f5f3e3d5ffd5b505050506040513d601f19601f820116820180604052508101906106759190610c3b565b5050509150506402540be4008161068c9190610cb2565b9250505090565b828054828255905f5260205f20908101928215610709579160200282015b82811115610708578251825f6101000a81548173ffffffffffffffffffffffffffffffffffffffff021916908373ffffffffffffffffffffffffffffffffffffffff160217905550916020019190600101906106b1565b5b509050610716919061071a565b5090565b5b80821115610731575f815f90555060010161071b565b5090565b5f819050919050565b61074781610735565b82525050565b5f6020820190506107605f83018461073e565b92915050565b5f5ffd5b5f73ffffffffffffffffffffffffffffffffffffffff82169050919050565b5f6107938261076a565b9050919050565b6107a381610789565b81146107ad575f5ffd5b50565b5f813590506107be8161079a565b92915050565b5f602082840312156107d9576107d8610766565b5b5f6107e6848285016107b0565b91505092915050565b6107f881610789565b82525050565b5f6020820190506108115f8301846107ef565b92915050565b61082081610735565b811461082a575f5ffd5b50565b5f8135905061083b81610817565b92915050565b5f6020828403121561085657610855610766565b5b5f6108638482850161082d565b91505092915050565b5f82825260208201905092915050565b7f4d757374206265206f776e6572210000000000000000000000000000000000005f82015250565b5f6108b0600e8361086c565b91506108bb8261087c565b602082019050919050565b5f6020820190508181035f8301526108dd816108a4565b9050919050565b7f4e487b71000000000000000000000000000000000000000000000000000000005f52603260045260245ffd5b7f4e487b71000000000000000000000000000000000000000000000000000000005f52604160045260245ffd5b7f53656e64204661696c65640000000000000000000000000000000000000000005f82015250565b5f610972600b8361086c565b915061097d8261093e565b602082019050919050565b5f6020820190508181035f83015261099f81610966565b9050919050565b5f81905092915050565b50565b5f6109be5f836109a6565b91506109c9826109b0565b5f82019050919050565b5f6109dd826109b3565b9150819050919050565b7f43616c6c204661696c65640000000000000000000000000000000000000000005f82015250565b5f610a1b600b8361086c565b9150610a26826109e7565b602082019050919050565b5f6020820190508181035f830152610a4881610a0f565b9050919050565b7f596f75206e65656420746f207370656e64206d6f7265204554482100000000005f82015250565b5f610a83601b8361086c565b9150610a8e82610a4f565b602082019050919050565b5f6020820190508181035f830152610ab081610a77565b9050919050565b7f4e487b71000000000000000000000000000000000000000000000000000000005f52601160045260245ffd5b5f610aee82610735565b9150610af983610735565b9250828201905080821115610b1157610b10610ab7565b5b92915050565b5f610b2182610735565b9150610b2c83610735565b9250828202610b3a81610735565b91508282048414831517610b5157610b50610ab7565b5b5092915050565b7f4e487b71000000000000000000000000000000000000000000000000000000005f52601260045260245ffd5b5f610b8f82610735565b9150610b9a83610735565b925082610baa57610ba9610b58565b5b828204905092915050565b5f69ffffffffffffffffffff82169050919050565b610bd381610bb5565b8114610bdd575f5ffd5b50565b5f81519050610bee81610bca565b92915050565b5f819050919050565b610c0681610bf4565b8114610c10575f5ffd5b50565b5f81519050610c2181610bfd565b92915050565b5f81519050610c3581610817565b92915050565b5f5f5f5f5f60a08688031215610c5457610c53610766565b5b5f610c6188828901610be0565b9550506020610c7288828901610c13565b9450506040610c8388828901610c27565b9350506060610c9488828901610c27565b9250506080610ca588828901610be0565b9150509295509295909350565b5f610cbc82610bf4565b9150610cc783610bf4565b9250828202610cd581610bf4565b91507f800000000000000000000000000000000000000000000000000000000000000084145f84121615610d0c57610d0b610ab7565b5b8282058414831517610d2157610d20610ab7565b5b509291505056fea264697066735822122040d0c5334ed828d260364d9ad29a0b703eb7a40be39bc1b395b48d5a52ea51f664736f6c634300081e0033",
					"opcodes": "PUSH1 0x80 PUSH1 0x40 MSTORE PUSH8 0x4563918244F40000 PUSH0 SSTORE CALLVALUE DUP1 ISZERO PUSH1 0x19 JUMPI PUSH0 PUSH0 REVERT JUMPDEST POP CALLER PUSH1 0x3 PUSH0 PUSH2 0x100 EXP DUP2 SLOAD DUP2 PUSH20 0xFFFFFFFFFFFFFFFFFFFFFFFFFFFFFFFFFFFFFFFF MUL NOT AND SWAP1 DUP4 PUSH20 0xFFFFFFFFFFFFFFFFFFFFFFFFFFFFFFFFFFFFFFFF AND MUL OR SWAP1 SSTORE POP PUSH2 0xD5E DUP1 PUSH2 0x67 PUSH0 CODECOPY PUSH0 RETURN INVALID PUSH1 0x80 PUSH1 0x40 MSTORE PUSH1 0x4 CALLDATASIZE LT PUSH2 0x54 JUMPI PUSH0 CALLDATALOAD PUSH1 0xE0 SHR DUP1 PUSH4 0x98DE820 EQ PUSH2 0x58 JUMPI DUP1 PUSH4 0x3CCFD60B EQ PUSH2 0x82 JUMPI DUP1 PUSH4 0x3E47D6F3 EQ PUSH2 0x98 JUMPI DUP1 PUSH4 0x8DA5CB5B EQ PUSH2 0xD4 JUMPI DUP1 PUSH4 0xB60D4288 EQ PUSH2 0xFE JUMPI DUP1 PUSH4 0xDC0D3DFF EQ PUSH2 0x108 JUMPI JUMPDEST PUSH0 PUSH0 REVERT JUMPDEST CALLVALUE DUP1 ISZERO PUSH2 0x63 JUMPI PUSH0 PUSH0 REVERT JUMPDEST POP PUSH2 0x6C PUSH2 0x144 JUMP JUMPDEST PUSH1 0x40 MLOAD PUSH2 0x79 SWAP2 SWAP1 PUSH2 0x74D JUMP JUMPDEST PUSH1 0x40 MLOAD DUP1 SWAP2 SUB SWAP1 RETURN JUMPDEST CALLVALUE DUP1 ISZERO PUSH2 0x8D JUMPI PUSH0 PUSH0 REVERT JUMPDEST POP PUSH2 0x96 PUSH2 0x149 JUMP JUMPDEST STOP JUMPDEST CALLVALUE DUP1 ISZERO PUSH2 0xA3 JUMPI PUSH0 PUSH0 REVERT JUMPDEST POP PUSH2 0xBE PUSH1 0x4 DUP1 CALLDATASIZE SUB DUP2 ADD SWAP1 PUSH2 0xB9 SWAP2 SWAP1 PUSH2 0x7C4 JUMP JUMPDEST PUSH2 0x440 JUMP JUMPDEST PUSH1 0x40 MLOAD PUSH2 0xCB SWAP2 SWAP1 PUSH2 0x74D JUMP JUMPDEST PUSH1 0x40 MLOAD DUP1 SWAP2 SUB SWAP1 RETURN JUMPDEST CALLVALUE DUP1 ISZERO PUSH2 0xDF JUMPI PUSH0 PUSH0 REVERT JUMPDEST POP PUSH2 0xE8 PUSH2 0x455 JUMP JUMPDEST PUSH1 0x40 MLOAD PUSH2 0xF5 SWAP2 SWAP1 PUSH2 0x7FE JUMP JUMPDEST PUSH1 0x40 MLOAD DUP1 SWAP2 SUB SWAP1 RETURN JUMPDEST PUSH2 0x106 PUSH2 0x47A JUMP JUMPDEST STOP JUMPDEST CALLVALUE DUP1 ISZERO PUSH2 0x113 JUMPI PUSH0 PUSH0 REVERT JUMPDEST POP PUSH2 0x12E PUSH1 0x4 DUP1 CALLDATASIZE SUB DUP2 ADD SWAP1 PUSH2 0x129 SWAP2 SWAP1 PUSH2 0x841 JUMP JUMPDEST PUSH2 0x57B JUMP JUMPDEST PUSH1 0x40 MLOAD PUSH2 0x13B SWAP2 SWAP1 PUSH2 0x7FE JUMP JUMPDEST PUSH1 0x40 MLOAD DUP1 SWAP2 SUB SWAP1 RETURN JUMPDEST PUSH0 SLOAD DUP2 JUMP JUMPDEST PUSH1 0x3 PUSH0 SWAP1 SLOAD SWAP1 PUSH2 0x100 EXP SWAP1 DIV PUSH20 0xFFFFFFFFFFFFFFFFFFFFFFFFFFFFFFFFFFFFFFFF AND PUSH20 0xFFFFFFFFFFFFFFFFFFFFFFFFFFFFFFFFFFFFFFFF AND CALLER PUSH20 0xFFFFFFFFFFFFFFFFFFFFFFFFFFFFFFFFFFFFFFFF AND EQ PUSH2 0x1D8 JUMPI PUSH1 0x40 MLOAD PUSH32 0x8C379A000000000000000000000000000000000000000000000000000000000 DUP2 MSTORE PUSH1 0x4 ADD PUSH2 0x1CF SWAP1 PUSH2 0x8C6 JUMP JUMPDEST PUSH1 0x40 MLOAD DUP1 SWAP2 SUB SWAP1 REVERT JUMPDEST PUSH0 PUSH0 SWAP1 POP JUMPDEST PUSH1 0x1 DUP1 SLOAD SWAP1 POP DUP2 LT ISZERO PUSH2 0x279 JUMPI PUSH0 PUSH1 0x1 DUP3 DUP2 SLOAD DUP2 LT PUSH2 0x1FF JUMPI PUSH2 0x1FE PUSH2 0x8E4 JUMP JUMPDEST JUMPDEST SWAP1 PUSH0 MSTORE PUSH1 0x20 PUSH0 KECCAK256 ADD PUSH0 SWAP1 SLOAD SWAP1 PUSH2 0x100 EXP SWAP1 DIV PUSH20 0xFFFFFFFFFFFFFFFFFFFFFFFFFFFFFFFFFFFFFFFF AND SWAP1 POP PUSH0 PUSH1 0x2 PUSH0 DUP4 PUSH20 0xFFFFFFFFFFFFFFFFFFFFFFFFFFFFFFFFFFFFFFFF AND PUSH20 0xFFFFFFFFFFFFFFFFFFFFFFFFFFFFFFFFFFFFFFFF AND DUP2 MSTORE PUSH1 0x20 ADD SWAP1 DUP2 MSTORE PUSH1 0x20 ADD PUSH0 KECCAK256 DUP2 SWAP1 SSTORE POP POP DUP1 DUP1 PUSH1 0x1 ADD SWAP2 POP POP PUSH2 0x1DD JUMP JUMPDEST POP PUSH0 PUSH8 0xFFFFFFFFFFFFFFFF DUP2 GT ISZERO PUSH2 0x294 JUMPI PUSH2 0x293 PUSH2 0x911 JUMP JUMPDEST JUMPDEST PUSH1 0x40 MLOAD SWAP1 DUP1 DUP3 MSTORE DUP1 PUSH1 0x20 MUL PUSH1 0x20 ADD DUP3 ADD PUSH1 0x40 MSTORE DUP1 ISZERO PUSH2 0x2C2 JUMPI DUP2 PUSH1 0x20 ADD PUSH1 0x20 DUP3 MUL DUP1 CALLDATASIZE DUP4 CALLDATACOPY DUP1 DUP3 ADD SWAP2 POP POP SWAP1 POP JUMPDEST POP PUSH1 0x1 SWAP1 DUP1 MLOAD SWAP1 PUSH1 0x20 ADD SWAP1 PUSH2 0x2D8 SWAP3 SWAP2 SWAP1 PUSH2 0x693 JUMP JUMPDEST POP CALLER PUSH20 0xFFFFFFFFFFFFFFFFFFFFFFFFFFFFFFFFFFFFFFFF AND PUSH2 0x8FC SELFBALANCE SWAP1 DUP2 ISZERO MUL SWAP1 PUSH1 0x40 MLOAD PUSH0 PUSH1 0x40 MLOAD DUP1 DUP4 SUB DUP2 DUP6 DUP9 DUP9 CALL SWAP4 POP POP POP POP ISZERO DUP1 ISZERO PUSH2 0x31C JUMPI RETURNDATASIZE PUSH0 PUSH0 RETURNDATACOPY RETURNDATASIZE PUSH0 REVERT JUMPDEST POP PUSH0 CALLER PUSH20 0xFFFFFFFFFFFFFFFFFFFFFFFFFFFFFFFFFFFFFFFF AND PUSH2 0x8FC SELFBALANCE SWAP1 DUP2 ISZERO MUL SWAP1 PUSH1 0x40 MLOAD PUSH0 PUSH1 0x40 MLOAD DUP1 DUP4 SUB DUP2 DUP6 DUP9 DUP9 CALL SWAP4 POP POP POP POP SWAP1 POP DUP1 PUSH2 0x394 JUMPI PUSH1 0x40 MLOAD PUSH32 0x8C379A000000000000000000000000000000000000000000000000000000000 DUP2 MSTORE PUSH1 0x4 ADD PUSH2 0x38B SWAP1 PUSH2 0x988 JUMP JUMPDEST PUSH1 0x40 MLOAD DUP1 SWAP2 SUB SWAP1 REVERT JUMPDEST PUSH0 CALLER PUSH20 0xFFFFFFFFFFFFFFFFFFFFFFFFFFFFFFFFFFFFFFFF AND SELFBALANCE PUSH1 0x40 MLOAD PUSH2 0x3B9 SWAP1 PUSH2 0x9D3 JUMP JUMPDEST PUSH0 PUSH1 0x40 MLOAD DUP1 DUP4 SUB DUP2 DUP6 DUP8 GAS CALL SWAP3 POP POP POP RETURNDATASIZE DUP1 PUSH0 DUP2 EQ PUSH2 0x3F3 JUMPI PUSH1 0x40 MLOAD SWAP2 POP PUSH1 0x1F NOT PUSH1 0x3F RETURNDATASIZE ADD AND DUP3 ADD PUSH1 0x40 MSTORE RETURNDATASIZE DUP3 MSTORE RETURNDATASIZE PUSH0 PUSH1 0x20 DUP5 ADD RETURNDATACOPY PUSH2 0x3F8 JUMP JUMPDEST PUSH1 0x60 SWAP2 POP JUMPDEST POP POP SWAP1 POP DUP1 PUSH2 0x43C JUMPI PUSH1 0x40 MLOAD PUSH32 0x8C379A000000000000000000000000000000000000000000000000000000000 DUP2 MSTORE PUSH1 0x4 ADD PUSH2 0x433 SWAP1 PUSH2 0xA31 JUMP JUMPDEST PUSH1 0x40 MLOAD DUP1 SWAP2 SUB SWAP1 REVERT JUMPDEST POP POP JUMP JUMPDEST PUSH1 0x2 PUSH1 0x20 MSTORE DUP1 PUSH0 MSTORE PUSH1 0x40 PUSH0 KECCAK256 PUSH0 SWAP2 POP SWAP1 POP SLOAD DUP2 JUMP JUMPDEST PUSH1 0x3 PUSH0 SWAP1 SLOAD SWAP1 PUSH2 0x100 EXP SWAP1 DIV PUSH20 0xFFFFFFFFFFFFFFFFFFFFFFFFFFFFFFFFFFFFFFFF AND DUP2 JUMP JUMPDEST PUSH0 SLOAD PUSH2 0x485 CALLVALUE PUSH2 0x5B6 JUMP JUMPDEST LT ISZERO PUSH2 0x4C6 JUMPI PUSH1 0x40 MLOAD PUSH32 0x8C379A000000000000000000000000000000000000000000000000000000000 DUP2 MSTORE PUSH1 0x4 ADD PUSH2 0x4BD SWAP1 PUSH2 0xA99 JUMP JUMPDEST PUSH1 0x40 MLOAD DUP1 SWAP2 SUB SWAP1 REVERT JUMPDEST PUSH1 0x1 CALLER SWAP1 DUP1 PUSH1 0x1 DUP2 SLOAD ADD DUP1 DUP3 SSTORE DUP1 SWAP2 POP POP PUSH1 0x1 SWAP1 SUB SWAP1 PUSH0 MSTORE PUSH1 0x20 PUSH0 KECCAK256 ADD PUSH0 SWAP1 SWAP2 SWAP1 SWAP2 SWAP1 SWAP2 PUSH2 0x100 EXP DUP2 SLOAD DUP2 PUSH20 0xFFFFFFFFFFFFFFFFFFFFFFFFFFFFFFFFFFFFFFFF MUL NOT AND SWAP1 DUP4 PUSH20 0xFFFFFFFFFFFFFFFFFFFFFFFFFFFFFFFFFFFFFFFF AND MUL OR SWAP1 SSTORE POP CALLVALUE PUSH1 0x2 PUSH0 CALLER PUSH20 0xFFFFFFFFFFFFFFFFFFFFFFFFFFFFFFFFFFFFFFFF AND PUSH20 0xFFFFFFFFFFFFFFFFFFFFFFFFFFFFFFFFFFFFFFFF AND DUP2 MSTORE PUSH1 0x20 ADD SWAP1 DUP2 MSTORE PUSH1 0x20 ADD PUSH0 KECCAK256 PUSH0 DUP3 DUP3 SLOAD PUSH2 0x572 SWAP2 SWAP1 PUSH2 0xAE4 JUMP JUMPDEST SWAP3 POP POP DUP2 SWAP1 SSTORE POP JUMP JUMPDEST PUSH1 0x1 DUP2 DUP2 SLOAD DUP2 LT PUSH2 0x58A JUMPI PUSH0 DUP1 REVERT JUMPDEST SWAP1 PUSH0 MSTORE PUSH1 0x20 PUSH0 KECCAK256 ADD PUSH0 SWAP2 POP SLOAD SWAP1 PUSH2 0x100 EXP SWAP1 DIV PUSH20 0xFFFFFFFFFFFFFFFFFFFFFFFFFFFFFFFFFFFFFFFF AND DUP2 JUMP JUMPDEST PUSH0 PUSH0 PUSH2 0x5C0 PUSH2 0x5EE JUMP JUMPDEST SWAP1 POP PUSH0 PUSH8 0xDE0B6B3A7640000 DUP5 DUP4 PUSH2 0x5D8 SWAP2 SWAP1 PUSH2 0xB17 JUMP JUMPDEST PUSH2 0x5E2 SWAP2 SWAP1 PUSH2 0xB85 JUMP JUMPDEST SWAP1 POP DUP1 SWAP3 POP POP POP SWAP2 SWAP1 POP JUMP JUMPDEST PUSH0 PUSH0 PUSH20 0x694AA1769357215DE4FAC081BF1F309ADC325306 SWAP1 POP PUSH0 DUP2 PUSH20 0xFFFFFFFFFFFFFFFFFFFFFFFFFFFFFFFFFFFFFFFF AND PUSH4 0xFEAF968C PUSH1 0x40 MLOAD DUP2 PUSH4 0xFFFFFFFF AND PUSH1 0xE0 SHL DUP2 MSTORE PUSH1 0x4 ADD PUSH1 0xA0 PUSH1 0x40 MLOAD DUP1 DUP4 SUB DUP2 DUP7 GAS STATICCALL ISZERO DUP1 ISZERO PUSH2 0x651 JUMPI RETURNDATASIZE PUSH0 PUSH0 RETURNDATACOPY RETURNDATASIZE PUSH0 REVERT JUMPDEST POP POP POP POP PUSH1 0x40 MLOAD RETURNDATASIZE PUSH1 0x1F NOT PUSH1 0x1F DUP3 ADD AND DUP3 ADD DUP1 PUSH1 0x40 MSTORE POP DUP2 ADD SWAP1 PUSH2 0x675 SWAP2 SWAP1 PUSH2 0xC3B JUMP JUMPDEST POP POP POP SWAP2 POP POP PUSH5 0x2540BE400 DUP2 PUSH2 0x68C SWAP2 SWAP1 PUSH2 0xCB2 JUMP JUMPDEST SWAP3 POP POP POP SWAP1 JUMP JUMPDEST DUP3 DUP1 SLOAD DUP3 DUP3 SSTORE SWAP1 PUSH0 MSTORE PUSH1 0x20 PUSH0 KECCAK256 SWAP1 DUP2 ADD SWAP3 DUP3 ISZERO PUSH2 0x709 JUMPI SWAP2 PUSH1 0x20 MUL DUP3 ADD JUMPDEST DUP3 DUP2 GT ISZERO PUSH2 0x708 JUMPI DUP3 MLOAD DUP3 PUSH0 PUSH2 0x100 EXP DUP2 SLOAD DUP2 PUSH20 0xFFFFFFFFFFFFFFFFFFFFFFFFFFFFFFFFFFFFFFFF MUL NOT AND SWAP1 DUP4 PUSH20 0xFFFFFFFFFFFFFFFFFFFFFFFFFFFFFFFFFFFFFFFF AND MUL OR SWAP1 SSTORE POP SWAP2 PUSH1 0x20 ADD SWAP2 SWAP1 PUSH1 0x1 ADD SWAP1 PUSH2 0x6B1 JUMP JUMPDEST JUMPDEST POP SWAP1 POP PUSH2 0x716 SWAP2 SWAP1 PUSH2 0x71A JUMP JUMPDEST POP SWAP1 JUMP JUMPDEST JUMPDEST DUP1 DUP3 GT ISZERO PUSH2 0x731 JUMPI PUSH0 DUP2 PUSH0 SWAP1 SSTORE POP PUSH1 0x1 ADD PUSH2 0x71B JUMP JUMPDEST POP SWAP1 JUMP JUMPDEST PUSH0 DUP2 SWAP1 POP SWAP2 SWAP1 POP JUMP JUMPDEST PUSH2 0x747 DUP2 PUSH2 0x735 JUMP JUMPDEST DUP3 MSTORE POP POP JUMP JUMPDEST PUSH0 PUSH1 0x20 DUP3 ADD SWAP1 POP PUSH2 0x760 PUSH0 DUP4 ADD DUP5 PUSH2 0x73E JUMP JUMPDEST SWAP3 SWAP2 POP POP JUMP JUMPDEST PUSH0 PUSH0 REVERT JUMPDEST PUSH0 PUSH20 0xFFFFFFFFFFFFFFFFFFFFFFFFFFFFFFFFFFFFFFFF DUP3 AND SWAP1 POP SWAP2 SWAP1 POP JUMP JUMPDEST PUSH0 PUSH2 0x793 DUP3 PUSH2 0x76A JUMP JUMPDEST SWAP1 POP SWAP2 SWAP1 POP JUMP JUMPDEST PUSH2 0x7A3 DUP2 PUSH2 0x789 JUMP JUMPDEST DUP2 EQ PUSH2 0x7AD JUMPI PUSH0 PUSH0 REVERT JUMPDEST POP JUMP JUMPDEST PUSH0 DUP2 CALLDATALOAD SWAP1 POP PUSH2 0x7BE DUP2 PUSH2 0x79A JUMP JUMPDEST SWAP3 SWAP2 POP POP JUMP JUMPDEST PUSH0 PUSH1 0x20 DUP3 DUP5 SUB SLT ISZERO PUSH2 0x7D9 JUMPI PUSH2 0x7D8 PUSH2 0x766 JUMP JUMPDEST JUMPDEST PUSH0 PUSH2 0x7E6 DUP5 DUP3 DUP6 ADD PUSH2 0x7B0 JUMP JUMPDEST SWAP2 POP POP SWAP3 SWAP2 POP POP JUMP JUMPDEST PUSH2 0x7F8 DUP2 PUSH2 0x789 JUMP JUMPDEST DUP3 MSTORE POP POP JUMP JUMPDEST PUSH0 PUSH1 0x20 DUP3 ADD SWAP1 POP PUSH2 0x811 PUSH0 DUP4 ADD DUP5 PUSH2 0x7EF JUMP JUMPDEST SWAP3 SWAP2 POP POP JUMP JUMPDEST PUSH2 0x820 DUP2 PUSH2 0x735 JUMP JUMPDEST DUP2 EQ PUSH2 0x82A JUMPI PUSH0 PUSH0 REVERT JUMPDEST POP JUMP JUMPDEST PUSH0 DUP2 CALLDATALOAD SWAP1 POP PUSH2 0x83B DUP2 PUSH2 0x817 JUMP JUMPDEST SWAP3 SWAP2 POP POP JUMP JUMPDEST PUSH0 PUSH1 0x20 DUP3 DUP5 SUB SLT ISZERO PUSH2 0x856 JUMPI PUSH2 0x855 PUSH2 0x766 JUMP JUMPDEST JUMPDEST PUSH0 PUSH2 0x863 DUP5 DUP3 DUP6 ADD PUSH2 0x82D JUMP JUMPDEST SWAP2 POP POP SWAP3 SWAP2 POP POP JUMP JUMPDEST PUSH0 DUP3 DUP3 MSTORE PUSH1 0x20 DUP3 ADD SWAP1 POP SWAP3 SWAP2 POP POP JUMP JUMPDEST PUSH32 0x4D757374206265206F776E657221000000000000000000000000000000000000 PUSH0 DUP3 ADD MSTORE POP JUMP JUMPDEST PUSH0 PUSH2 0x8B0 PUSH1 0xE DUP4 PUSH2 0x86C JUMP JUMPDEST SWAP2 POP PUSH2 0x8BB DUP3 PUSH2 0x87C JUMP JUMPDEST PUSH1 0x20 DUP3 ADD SWAP1 POP SWAP2 SWAP1 POP JUMP JUMPDEST PUSH0 PUSH1 0x20 DUP3 ADD SWAP1 POP DUP2 DUP2 SUB PUSH0 DUP4 ADD MSTORE PUSH2 0x8DD DUP2 PUSH2 0x8A4 JUMP JUMPDEST SWAP1 POP SWAP2 SWAP1 POP JUMP JUMPDEST PUSH32 0x4E487B7100000000000000000000000000000000000000000000000000000000 PUSH0 MSTORE PUSH1 0x32 PUSH1 0x4 MSTORE PUSH1 0x24 PUSH0 REVERT JUMPDEST PUSH32 0x4E487B7100000000000000000000000000000000000000000000000000000000 PUSH0 MSTORE PUSH1 0x41 PUSH1 0x4 MSTORE PUSH1 0x24 PUSH0 REVERT JUMPDEST PUSH32 0x53656E64204661696C6564000000000000000000000000000000000000000000 PUSH0 DUP3 ADD MSTORE POP JUMP JUMPDEST PUSH0 PUSH2 0x972 PUSH1 0xB DUP4 PUSH2 0x86C JUMP JUMPDEST SWAP2 POP PUSH2 0x97D DUP3 PUSH2 0x93E JUMP JUMPDEST PUSH1 0x20 DUP3 ADD SWAP1 POP SWAP2 SWAP1 POP JUMP JUMPDEST PUSH0 PUSH1 0x20 DUP3 ADD SWAP1 POP DUP2 DUP2 SUB PUSH0 DUP4 ADD MSTORE PUSH2 0x99F DUP2 PUSH2 0x966 JUMP JUMPDEST SWAP1 POP SWAP2 SWAP1 POP JUMP JUMPDEST PUSH0 DUP2 SWAP1 POP SWAP3 SWAP2 POP POP JUMP JUMPDEST POP JUMP JUMPDEST PUSH0 PUSH2 0x9BE PUSH0 DUP4 PUSH2 0x9A6 JUMP JUMPDEST SWAP2 POP PUSH2 0x9C9 DUP3 PUSH2 0x9B0 JUMP JUMPDEST PUSH0 DUP3 ADD SWAP1 POP SWAP2 SWAP1 POP JUMP JUMPDEST PUSH0 PUSH2 0x9DD DUP3 PUSH2 0x9B3 JUMP JUMPDEST SWAP2 POP DUP2 SWAP1 POP SWAP2 SWAP1 POP JUMP JUMPDEST PUSH32 0x43616C6C204661696C6564000000000000000000000000000000000000000000 PUSH0 DUP3 ADD MSTORE POP JUMP JUMPDEST PUSH0 PUSH2 0xA1B PUSH1 0xB DUP4 PUSH2 0x86C JUMP JUMPDEST SWAP2 POP PUSH2 0xA26 DUP3 PUSH2 0x9E7 JUMP JUMPDEST PUSH1 0x20 DUP3 ADD SWAP1 POP SWAP2 SWAP1 POP JUMP JUMPDEST PUSH0 PUSH1 0x20 DUP3 ADD SWAP1 POP DUP2 DUP2 SUB PUSH0 DUP4 ADD MSTORE PUSH2 0xA48 DUP2 PUSH2 0xA0F JUMP JUMPDEST SWAP1 POP SWAP2 SWAP1 POP JUMP JUMPDEST PUSH32 0x596F75206E65656420746F207370656E64206D6F726520455448210000000000 PUSH0 DUP3 ADD MSTORE POP JUMP JUMPDEST PUSH0 PUSH2 0xA83 PUSH1 0x1B DUP4 PUSH2 0x86C JUMP JUMPDEST SWAP2 POP PUSH2 0xA8E DUP3 PUSH2 0xA4F JUMP JUMPDEST PUSH1 0x20 DUP3 ADD SWAP1 POP SWAP2 SWAP1 POP JUMP JUMPDEST PUSH0 PUSH1 0x20 DUP3 ADD SWAP1 POP DUP2 DUP2 SUB PUSH0 DUP4 ADD MSTORE PUSH2 0xAB0 DUP2 PUSH2 0xA77 JUMP JUMPDEST SWAP1 POP SWAP2 SWAP1 POP JUMP JUMPDEST PUSH32 0x4E487B7100000000000000000000000000000000000000000000000000000000 PUSH0 MSTORE PUSH1 0x11 PUSH1 0x4 MSTORE PUSH1 0x24 PUSH0 REVERT JUMPDEST PUSH0 PUSH2 0xAEE DUP3 PUSH2 0x735 JUMP JUMPDEST SWAP2 POP PUSH2 0xAF9 DUP4 PUSH2 0x735 JUMP JUMPDEST SWAP3 POP DUP3 DUP3 ADD SWAP1 POP DUP1 DUP3 GT ISZERO PUSH2 0xB11 JUMPI PUSH2 0xB10 PUSH2 0xAB7 JUMP JUMPDEST JUMPDEST SWAP3 SWAP2 POP POP JUMP JUMPDEST PUSH0 PUSH2 0xB21 DUP3 PUSH2 0x735 JUMP JUMPDEST SWAP2 POP PUSH2 0xB2C DUP4 PUSH2 0x735 JUMP JUMPDEST SWAP3 POP DUP3 DUP3 MUL PUSH2 0xB3A DUP2 PUSH2 0x735 JUMP JUMPDEST SWAP2 POP DUP3 DUP3 DIV DUP5 EQ DUP4 ISZERO OR PUSH2 0xB51 JUMPI PUSH2 0xB50 PUSH2 0xAB7 JUMP JUMPDEST JUMPDEST POP SWAP3 SWAP2 POP POP JUMP JUMPDEST PUSH32 0x4E487B7100000000000000000000000000000000000000000000000000000000 PUSH0 MSTORE PUSH1 0x12 PUSH1 0x4 MSTORE PUSH1 0x24 PUSH0 REVERT JUMPDEST PUSH0 PUSH2 0xB8F DUP3 PUSH2 0x735 JUMP JUMPDEST SWAP2 POP PUSH2 0xB9A DUP4 PUSH2 0x735 JUMP JUMPDEST SWAP3 POP DUP3 PUSH2 0xBAA JUMPI PUSH2 0xBA9 PUSH2 0xB58 JUMP JUMPDEST JUMPDEST DUP3 DUP3 DIV SWAP1 POP SWAP3 SWAP2 POP POP JUMP JUMPDEST PUSH0 PUSH10 0xFFFFFFFFFFFFFFFFFFFF DUP3 AND SWAP1 POP SWAP2 SWAP1 POP JUMP JUMPDEST PUSH2 0xBD3 DUP2 PUSH2 0xBB5 JUMP JUMPDEST DUP2 EQ PUSH2 0xBDD JUMPI PUSH0 PUSH0 REVERT JUMPDEST POP JUMP JUMPDEST PUSH0 DUP2 MLOAD SWAP1 POP PUSH2 0xBEE DUP2 PUSH2 0xBCA JUMP JUMPDEST SWAP3 SWAP2 POP POP JUMP JUMPDEST PUSH0 DUP2 SWAP1 POP SWAP2 SWAP1 POP JUMP JUMPDEST PUSH2 0xC06 DUP2 PUSH2 0xBF4 JUMP JUMPDEST DUP2 EQ PUSH2 0xC10 JUMPI PUSH0 PUSH0 REVERT JUMPDEST POP JUMP JUMPDEST PUSH0 DUP2 MLOAD SWAP1 POP PUSH2 0xC21 DUP2 PUSH2 0xBFD JUMP JUMPDEST SWAP3 SWAP2 POP POP JUMP JUMPDEST PUSH0 DUP2 MLOAD SWAP1 POP PUSH2 0xC35 DUP2 PUSH2 0x817 JUMP JUMPDEST SWAP3 SWAP2 POP POP JUMP JUMPDEST PUSH0 PUSH0 PUSH0 PUSH0 PUSH0 PUSH1 0xA0 DUP7 DUP9 SUB SLT ISZERO PUSH2 0xC54 JUMPI PUSH2 0xC53 PUSH2 0x766 JUMP JUMPDEST JUMPDEST PUSH0 PUSH2 0xC61 DUP9 DUP3 DUP10 ADD PUSH2 0xBE0 JUMP JUMPDEST SWAP6 POP POP PUSH1 0x20 PUSH2 0xC72 DUP9 DUP3 DUP10 ADD PUSH2 0xC13 JUMP JUMPDEST SWAP5 POP POP PUSH1 0x40 PUSH2 0xC83 DUP9 DUP3 DUP10 ADD PUSH2 0xC27 JUMP JUMPDEST SWAP4 POP POP PUSH1 0x60 PUSH2 0xC94 DUP9 DUP3 DUP10 ADD PUSH2 0xC27 JUMP JUMPDEST SWAP3 POP POP PUSH1 0x80 PUSH2 0xCA5 DUP9 DUP3 DUP10 ADD PUSH2 0xBE0 JUMP JUMPDEST SWAP2 POP POP SWAP3 SWAP6 POP SWAP3 SWAP6 SWAP1 SWAP4 POP JUMP JUMPDEST PUSH0 PUSH2 0xCBC DUP3 PUSH2 0xBF4 JUMP JUMPDEST SWAP2 POP PUSH2 0xCC7 DUP4 PUSH2 0xBF4 JUMP JUMPDEST SWAP3 POP DUP3 DUP3 MUL PUSH2 0xCD5 DUP2 PUSH2 0xBF4 JUMP JUMPDEST SWAP2 POP PUSH32 0x8000000000000000000000000000000000000000000000000000000000000000 DUP5 EQ PUSH0 DUP5 SLT AND ISZERO PUSH2 0xD0C JUMPI PUSH2 0xD0B PUSH2 0xAB7 JUMP JUMPDEST JUMPDEST DUP3 DUP3 SDIV DUP5 EQ DUP4 ISZERO OR PUSH2 0xD21 JUMPI PUSH2 0xD20 PUSH2 0xAB7 JUMP JUMPDEST JUMPDEST POP SWAP3 SWAP2 POP POP JUMP INVALID LOG2 PUSH5 0x6970667358 0x22 SLT KECCAK256 BLOCKHASH 0xD0 0xC5 CALLER 0x4E 0xD8 0x28 0xD2 PUSH1 0x36 0x4D SWAP11 0xD2 SWAP11 SIGNEXTEND PUSH17 0x3EB7A40BE39BC1B395B48D5A52EA51F664 PUSH20 0x6F6C634300081E00330000000000000000000000 "
				},
				"gasEstimates": {
					"creation": {
						"codeDepositCost": "684400",
						"executionCost": "47083",
						"totalCost": "731483"
					},
					"external": {
						"addressToAmountFunded(address)": "2824",
						"fund()": "infinite",
						"funders(uint256)": "5032",
						"minimumUsd()": "2402",
						"owner()": "2552",
						"withdraw()": "infinite"
					}
				},
				"methodIdentifiers": {
					"addressToAmountFunded(address)": "3e47d6f3",
					"fund()": "b60d4288",
					"funders(uint256)": "dc0d3dff",
					"minimumUsd()": "098de820",
					"owner()": "8da5cb5b",
					"withdraw()": "3ccfd60b"
				}
			},
			"storageLayout": {
				"storage": [
					{
						"astId": 55,
						"contract": "FundMe.sol:FundMe",
						"label": "minimumUsd",
						"offset": 0,
						"slot": "0",
						"type": "t_uint256"
					},
					{
						"astId": 58,
						"contract": "FundMe.sol:FundMe",
						"label": "funders",
						"offset": 0,
						"slot": "1",
						"type": "t_array(t_address)dyn_storage"
					},
					{
						"astId": 62,
						"contract": "FundMe.sol:FundMe",
						"label": "addressToAmountFunded",
						"offset": 0,
						"slot": "2",
						"type": "t_mapping(t_address,t_uint256)"
					},
					{
						"astId": 64,
						"contract": "FundMe.sol:FundMe",
						"label": "owner",
						"offset": 0,
						"slot": "3",
						"type": "t_address"
					}
				],
				"types": {
					"t_address": {
						"encoding": "inplace",
						"label": "address",
						"numberOfBytes": "20"
					},
					"t_array(t_address)dyn_storage": {
						"base": "t_address",
						"encoding": "dynamic_array",
						"label": "address[]",
						"numberOfBytes": "32"
					},
					"t_mapping(t_address,t_uint256)": {
						"encoding": "mapping",
						"key": "t_address",
						"label": "mapping(address => uint256)",
						"numberOfBytes": "32",
						"value": "t_uint256"
					},
					"t_uint256": {
						"encoding": "inplace",
						"label": "uint256",
						"numberOfBytes": "32"
					}
				}
			},
			"userdoc": {
				"kind": "user",
				"methods": {},
				"version": 1
			}
		}
	}
}